S011000041746D6567613132382E7372656329
S1130000A1C00000BEC00000BCC00000BAC0000017
S1130010B8C00000B6C00000B4C00000B2C0000008
S1130020B0C00000AEC00000C0C300008CC300001C
S113003094C300009CC30000AEC300000C94E40F02
S113004078C300009EC00000ECC3000020C4000080
S113005098C0000097C0000094C0000092C0000047
S113006090C30000ACC30000B4C30000BCC30000D4
S1130070C4C30000CCC3000033C400006AC4000041
S113008080C000007EC000007CC00000BA02BE0236
S1130090C202C602CA02D102D802DF02E302EA02A5
S11300A0F102F802FC0203030A0326032A032E03C7
S11300B0320338033C03400344034D035103550307
S11300C05E0307634236B79BD8A71A39685618AE41
S11300D0BAAB558C1D3CB7CC5763BD6DEDFD753E79
S11300E0F6177231BF000000803F08000000BE9286
S11300F02449123EABAAAA2ABECDCCCC4C3E000069
S11301000080BEABAAAAAA3E00000000BF00000007
S1130110803F0000000000084178D3BB4387D1131F
S11301203D190E3CC3BD4282AD2B3E68EC8276BEC7
S1130130D98FE1A93E4C80EFFFBE01C4FF7F3F0091
S11301400000000011241FBECFEFD0E1DEBFCDBF01
S113015011E0A0E0B1E0EAE0F9E200E00BBF02C088
S113016007900D92AA30B107D9F723E0AAE0B1E0D5
S113017001C01D92A633B207E1F70E945A0E0C94F7
S113018083143ECF1F920F920FB60F9211240BB619
S11301900F922F933F934F935F938F939F93EF937C
S11301A0FF932FB78FB78F778FBF84B190E0909371
S11301B00C0180930B0135B180910B0190910C01DE
S11301C0932B90930C0180930B0180910A0184304E
S11301D0A0F480910A018F5F80930A0140910B0182
S11301E050910C0180910D0190910E01840F951F87
S11301F090930E0180930D0143C0E0910F01F091A3
S1130200100180910D0190910E019595879595951A
S11302108795EE0FFF1FED5DFE4F91838083109253
S11302200E0110920D0110920A0140910F0150919C
S1130230100180911101909112014817590754F44B
S113024080910F0190911001019690931001809379
S11302500F0104C01092100110920F0187B1807E2B
S113026087B9E0910F01F0911001EE0FFF1FED5ED1
S1130270FE4F8081918137B18F719927832B87B984
S11302802FBFFF91EF919F918F915F914F913F917C
S11302902F910F900BBE0F900FBE0F901F901895CB
S11302A020913601211141C023B7287F23BF803418
S11302B0910511F148F488309105B1F0803291052F
S11302C0B9F0019749F50CC0811521E09207E1F0DE
S11302D0811524E09207E1F080389105E9F410C01B
S11302E083B7816083BF1BC083B7826083BF17C09D
S11302F083B7836083BF13C083B7846083BF0FC099
S113030083B7856083BF0BC083B7866083BF07C094
S113031083B7876083BF03C083B7876083BF8FB70A
S113032080688FBF81E080933601089593B79F7CE6
S113033093BF823051F0833071F0813089F480E1D1
S113034087BB83B7806183BF089580E187BB83B790
S1130350806283BF089580E187BB83B7806383BFD6
S1130360089581BF089583B7887F83BF12BE10921A
S11303703601089520913301211141C02EB5287F03
S11303802EBD88309105D1F048F48330910531F1C8
S11303908530910539F1019749F50CC0811521E0AB
S11303A09207A1F0811524E09207A1F08034910511
S11303B0E9F408C08EB581608EBD1BC08EB5826025
S11303C08EBD17C08EB583608EBD13C08EB584609C
S11303D08EBD0FC08EB585608EBD0BC08EB5866098
S11303E08EBD07C08EB587608EBD03C08EB5856097
S11303F08EBD8FB780688FBF81E0809333010895ED
S11304009FB59F739FBD823049F0833061F0813086
S113041071F4BD9A8FB580648FBD0895BD9A8FB570
S113042080688FBD0895BD9A8FB5806C8FBD089587
S11304309FB59F7C9FBD823049F0833061F081304D
S113044071F4BE9A8FB580618FBD0895BE9A8FB541
S113045080628FBD0895BE9A8FB580638FBD089565
S11304609FB5937F9FBD823049F0833061F0813026
S113047071F4BF9A8FB584608FBD0895BF9A8FB50C
S113048088608FBD0895BF9A8FB58C608FBD089525
S11304909BBD8ABD089599BD88BD08959093790048
S11304A08093780008958EB5887F8EBD1DBC1CBCDA
S11304B0109233010895109236012FEF21BF23B714
S11304C0277B23BF623041F0633051F0613059F42F
S11304D023B7206423BF07C023B7286023BF03C00A
S11304E023B7286423BF27B72E7F27BF27B72D7FC5
S11304F027BF423041F0433051F0413071F427B707
S1130500216027BF0AC027B7226027BF06C027B7CC
S1130510216027BF27B7226027BF26E931E0FC010D
S11305203183208321EB31E03783268320E531E0DA
S11305303587248723EB31E03787268708950F9387
S11305401F93DC01109233018FEF9FEF9BBD8ABD97
S11305508FB58C7F8FBD8EB5877E8EBD062F10E044
S1130560F8013197EF30F10508F05AC0EA5BFF4F0C
S11305700C9414148FB581608FBD52C08FB5826006
S11305808FBD4EC08FB583608FBD4AC08EB5886065
S11305908EBD46C08FB581608FBD8EB588608EBD1F
S11305A03FC08FB582608FBD8EB588608EBD38C068
S11305B08FB583608FBD8EB588608EBD31C08EB51A
S11305C080618EBD2DC08FB581608FBD8EB5806179
S11305D08EBD26C08FB582608FBD8EB580618EBD05
S11305E01FC08FB583608FBD8EB580618EBD18C06E
S11305F08EB588618EBD14C08FB581608FBD8EB5F8
S113060088618EBD0DC08FB582608FBD8EB5886147
S11306108EBD06C08FB583608FBD8EB588618EBDDB
S11306208FB583708FBD87B7837C87BFEDE7F0E01C
S113063080818E7F808350E0FA013197EC30F105A0
S113064008F044C0EB5AFF4F0C94141487B784602D
S113065087BF3CC087B7806187BF38C087B78860D1
S113066087BF34C0EDE7F0E08081816080832EC0D5
S113067087B7806287BF2AC087B7846187BF26C0D7
S113068087B78C6087BF22C087B7846087BFEDE7D8
S1130690F0E080818160808319C087B7846287BF5E
S11306A015C087B78C6187BF11C087B78C6187BFBE
S11306B0EDE7F0E080818160808308C087B78861BE
S11306C087BFEDE7F0E080818160808380E092E085
S11306D011969C938E9388E192E013969C938E934B
S11306E0129780E392E015969C938E93149788E476
S11306F092E017969C938E9316978BE492E019964A
S11307009C938E9318978EE492E01B969C938E9301
S11307101A978AEB91E01D969C938E931C9783E520
S113072092E01F969C938E931E97CD011F910F917B
S113073008951F920F920FB60F9211240F900FBEBF
S11307400F901F9018951F920F920FB60F921124BD
S11307500F900FBE0F901F9018951F920F920FB617
S11307600F9211240F900FBE0F901F9018951F9297
S11307700F920FB60F9211240F900FBE0F901F907F
S113078018951F920F920FB60F9211240F900FBE5F
S11307900F901F9018951F920F920FB60F9211246D
S11307A00F900FBE0F901F9018951F920F920FB6C7
S11307B00F9211240F900FBE0F901F9018951F9247
S11307C00F920FB60F9211240F900FBE0F901F902F
S11307D018951F920F920FB60F9211240F900FBE0F
S11307E00F901F9018951F920F920FB60F9211241D
S11307F00F900FBE0F901F9018951F920F920FB677
S11308000F9211240F900FBE0F901F9018951F92F6
S11308100F920FB60F9211240F900FBE0F901F90DE
S113082018951F920F920FB60F9211240BB60F92C8
S11308308F939F93EF93FF938BB19AB188718093B9
S11308407801E0918102EF5FEF7390918202E913E6
S113085004C082E0809378010FC09CB1E0938102D0
S1130860882331F0F0E0EC57FD4F88E5808304C025
S1130870F0E0EC57FD4F9083FF91EF919F918F91A2
S11308800F900BBE0F900FBE0F901F9018951F92E4
S11308900F920FB60F9211240BB60F928F939F9362
S11308A0EF93FF93E091BC01F0E0EF5BFD4F80819B
S11308B08CB910828091BC018F5F8F738093BC01CF
S11308C090917701891301C05598FF91EF919F9101
S11308D08F910F900BBE0F900FBE0F901F90189525
S11308E01F920F920FB60F9211240BB60F928F9393
S11308F09F93EF93FF9380919B0090919A0088714E
S11309008093BE01E091BD01EF5FEF73909183028C
S1130910E91304C082E08093BE0110C090919C0052
S1130920E093BD01882331F0F0E0E658FE4F88E5FE
S1130930808304C0F0E0E658FE4F9083FF91EF916E
S11309409F918F910F900BBE0F900FBE0F901F9031
S113095018951F920F920FB60F9211240BB60F9297
S11309608F939F93EF93FF93E0917901F0E0EF5F12
S1130970FD4F808180939C001082809179018F5F6C
S11309808F73809379019091BF01891305C0EAE9BF
S1130990F0E080818F7D8083FF91EF919F918F9113
S11309A00F900BBE0F900FBE0F901F9018956823E9
S11309B0442321F0861721F080E00895611180E03E
S11309C00895862B08958623089586230895862BFB
S11309D08095089586278623089560958623089533
S11309E086270895CF92DF92EF92FF920F931F9381
S11309F0FC010081118122813381FB01C080D180FF
S1130A00E280F380FC01C082D182E282F382FB01A6
S1130A1000831183228333831F910F91FF90EF9002
S1130A20DF90CF900895FB012081FC0120832223D5
S1130A3039F0DB01119631969D9191939111FCCF80
S1130A400895CF93DF93EC019881992399F0FE01E7
S1130A50319620E030E0492F50E04617570731F037
S1130A60DE01A20FB31F9C932F5F3F4F9191911111
S1130A70F2CF02C020E030E0FE01E20FF31F10824B
S1130A80DF91CF9108952F923F924F925F926F9290
S1130A907F928F929F92AF92BF92CF92DF92EF920A
S1130AA0FF920F931F93CF93DF9300D000D0CDB765
S1130AB0DEB72C011B014B0177231CF42FEF821AA4
S1130AC0920A95948794181419040CF451C06AC0BE
S1130AD09601DD209CF1F50140815181F401608192
S1130AE071816417750754F58C010A0D1B1DD4011F
S1130AF0BC82AB82BA82A982EB81FC817183608360
S1130B0011965C934E932E193F09C2F0F80140816F
S1130B105181E981FA8160817181080F191FE80F01
S1130B20F91FFA83E983EB81FC81E80FF91FFC8349
S1130B30EB83A80FB91F64177507F4F2FFEFCF1A00
S1130B40DF0A22E0A20EB11CE2E08E0E911CC61454
S1130B50D70409F0BDCF4701FF201CF4FFEF8F1A23
S1130B609F0A9594879418141904E4F4740101C03D
S1130B707401821493047CF76401CE18DF085601D3
S1130B80AA0CBB1CA40CB51C880C991C840C951CC9
S1130B9031016E187F08C701880F991F91958195BF
S1130BA0910996CF0F900F900F900F90DF91CF91F6
S1130BB01F910F91FF90EF90DF90CF90BF90AF9077
S1130BC09F908F907F906F905F904F903F902F9069
S1130BD00895861797070CF4CB0108959B01672BA2
S1130BE011F408959A01B9010E94C313AC01822F34
S1130BF0932F41155105B1F70895FC01908180EDC3
S1130C00890F8A30D0F4319620E030E0A901440FF6
S1130C10551F220F331F220F331F220F331F420F82
S1130C20531F292F30E020533109240F351F919190
S1130C3080ED890F8A3050F302C020E030E0C90112
S1130C40089586230895009739F020E030E02F5F5F
S1130C503F4F82179307D9F7089587FF08C09195EE
S1130C6081959109992791958195910908958F7797
S1130C709927089591FF08C09195819591099370E2
S1130C80919581959109089591700895615021E09D
S1130C9030E002C0220F331F6A95E2F7A9014150E8
S1130CA05109B90168237923672B29F084239523FB
S1130CB0821B930B08958423952308959DEC899FAB
S1130CC0912D1124969596959695392F330F232FB0
S1130CD0220F220F230F821B20E1929F800D1124EB
S1130CE00895982F92959F70990F292F220F220F04
S1130CF0920F8F70890F0895FC01DB01AC53BD4F37
S1130D001C921616170614F5908191110CC017C089
S1130D10919191110DC015C081932F5F3F4F2617FC
S1130D203707D4F313C0A4ECB2E0319620E030E0EE
S1130D309D932F5F3F4F6217730751F707C020E061
S1130D4030E0F901EC53FD4F80E2E6CF84EC92E011
S1130D5008954F925F926F927F92AF92BF92CF921B
S1130D60DF92EF92FF920F931F93CF93DF93CDB750
S1130D70DEB729013A019B01AC0124193509460962
S1130D80570989899A89AB89BC89BC01CD016A1943
S1130D907B098C099D090E94A013A80197012419BD
S1130DA03509460957090E94F813CA01B9016A0DA9
S1130DB07B1D8C1D9D1DDF91CF911F910F91FF9085
S1130DC0EF90DF90CF90BF90AF907F906F905F9047
S1130DD04F90089570E06115710599F041E050E07D
S1130DE021E030E090E0FA01E89FA001E99F500D76
S1130DF0F89F500D11242F5F3F4F6217730798F728
S1130E0002C041E050E0CA010895FC012081222380
S1130E1041F0319680E090E0019621912111FCCFC0
S1130E20089580E090E00895CF93DF93EC01EDDF27
S1130E309C012150310962F0FE01E80FF91F9291E3
S1130E40903219F09950923018F421503109B8F7C2
S1130E50C20FD31F1982C901DF91CF910895CF9397
S1130E60DF93EC01D2DF9C012150310912161306E5
S1130E7084F4DE01A80FB91FFE0180E090E04081F8
S1130E805E9151934C930196215031098217930737
S1130E90B4F3DF91CF9108958F929F92AF92BF9256
S1130EA0CF92DF92EF92FF920F931F93CF93DF9332
S1130EB06B017C01DC01CB01FF203CF488279927DE
S1130EC0DC018C199D09AE09BF09BC01CD0110E0FC
S1130ED00F2EFAE08F2E912CA12CB12CF02D01C0F5
S1130EE0102F01E0010FC12FD0E0CC53DD4FA5013D
S1130EF094010E94F813605D6883622F732F842F1E
S1130F00952F161617061806190654F3FF2044F4F5
S1130F10E02FF0E0EC53FD4F8DE2808302E0010FFF
S1130F20E02FF0E0EC53FD4F108284EC92E097DF69
S1130F3084EC92E0DF91CF911F910F91FF90EF909D
S1130F40DF90CF90BF90AF909F908F9008950F93B4
S1130F501F93CF93DF93EC01992324F488279927D7
S1130F608C1B9D0B20E00AE010E001C0232F31E030
S1130F70320FE22FF0E0EC53FD4FB8010E94C3138F
S1130F80805D8083862F972F181619067CF3DD2346
S1130F9044F4E32FF0E0EC53FD4F8DE2808332E024
S1130FA0320FE32FF0E0EC53FD4F108284EC92E01B
S1130FB056DF84EC92E0DF91CF911F910F91089559
S1130FC0CF93AC01E0E0C1E0CE0FF0E0EC53FD4F75
S1130FD09A01ADECBCEC0E941D14969587959695EC
S1130FE08795969587959C01220F331F880F991F2B
S1130FF0880F991F880F991F820F931F9A01281B2E
S1131000390BC901805D80839A010E941D14AC01D3
S1131010569547955695479556954795EC2F411506
S1131020510589F6EC2FF0E0EC53FD4F108284EC6F
S113103092E015DF84EC92E0CF910895982F929579
S11310409F70990F292F220F220F920F8F70890FF3
S11310500895AC019C01ADECBCEC0E941D14969566
S113106087959695879596958795BC01660F771F0A
S11310709C01220F331F220F331F220F331F260F11
S1131080371F421B530B342F20E1829F300D112454
S1131090832F0895CF92DF92EF92FF92CF93DF9345
S11310A0CDB7DEB728970FB6F894DEBF0FBECDBF1D
S11310B06B017C0169837A838B839C832D833E83BC
S11310C04F835887C216D306E406F50634F4BE01EE
S11310D06B5F7F4FCE01019685DC8D819E81AF8150
S11310E0B885892B8A2B8B2B71F469817A818B814A
S11310F09C8120E030E0A9010E94F813611571057C
S11311008105910529F46D817E818F81988505C0C3
S11311106D837E838F839887F6CF28960FB6F894D5
S1131120DEBF0FBECDBFDF91CF91FF90EF90DF9078
S1131130CF90089590E002C0959587956A95E2F75F
S113114081700895E4ECF2E090E020E850E341E39C
S1131150382F322311F0408301C0508326959F5FBE
S113116031969830A9F71092CC0284EC92E008955D
S1131170A42FB0E0109761F021E030E0E1E0F0E06E
S1131180EE0FFF1F2F5F3F4FA217B307C8F702C030
S1131190E1E0F0E031976E237F238E239F2386279F
S11311A097276823792302C0660F771F4A95E2F7D1
S11311B0862B972B0895FC019FB78FB78F778FBF2E
S11311C09FBF8AEE96E09183808385E097E09383C6
S11311D082838FE297E09583848388EB98E09783FA
S11311E0868387ED94E09187808785EE94E09387EA
S11311F0828787EE94E0958784878AEE94E09787C8
S113120086878DEE94E0918B808B80EF94E0938BB6
S1131210828B81EE94E0958B848B83EE94E0978BA4
S1131220868B82EF94E0918F808F83E195E0938F9A
S1131230828F81E295E0958F848F83E495E0978F88
S1131240868F87EA97E091A380A380EE97E093A32B
S113125082A38CE497E095A384A384E197E097A309
S113126086A389EE95E091A780A78EEE95E093A7DB
S113127082A78DEF95E095A784A781E296E097A7D2
S113128086A783E296E091AB80AB8DE296E093ABC8
S113129082AB8AE396E095AB84AB86E496E097ABA9
S11312A086AB8EE596E091AF80AF81E796E093AF91
S11312B082AF8CE796E095AF84AF89EA96E097AF6A
S11312C086AFDF01A05CBF4F8EE198E011969C933E
S11312D08E93129689E298E011969C938E931296BF
S11312E08AE498E011969C938E9312968AE998E08A
S11312F011969C938E93129682EA98E011969C9391
S11313008E93129686E19AE08D939C93CF01089573
S11313109B01215031091216130684F4FC01E60FD7
S1131320F71FDC0180E090E04C9152915D93408383
S113133001962150310982179307B4F308954F920F
S11313405F926F927F928F929F92AF92BF92CF9251
S1131350DF92EF92FF920F931F93CF93DF932B01B2
S11313603C017A016901DC01CB0177203CF4882738
S11313709927DC0184199509A609B709BC01CD0197
S11313806115710581059105E9F08701C0E0D0E0A0
S11313900F2EFAE08F2E912CA12CB12CF02D21963A
S11313A0A50194010E94F813605DF80161938F0117
S11313B0622F732F842F952F611571058105910577
S11313C071F702C0C0E0D0E0CC15DD055CF4CE0DB1
S11313D0DF1D97012C0D3D1D80E38993C217D307B0
S11313E0E1F701C06E01772044F4F701EC0DFD1D17
S11313F08DE28083C60101966C01B601C70188DFC6
S1131400F701EC0DFD1D1082C601DF91CF911F91F4
S11314100F91FF90EF90DF90CF90BF90AF909F908F
S11314208F907F906F905F904F9008952F923F928E
S11314304F925F926F927F928F929F92AF92BF92E0
S1131440CF92DF92EF92FF920F931F93CF93DF938C
S11314506B017C018A01E901C8D64B015C0121E0E2
S113146030E0A8016CDF1C01209709F43AC08EE239
S1131470F801E20DF31D8083BE010D2E000C880BD4
S1131480990BE6D69B01AC0160E070E080E291E448
S1131490F2D72B013C01C501B401DAD69B01AC01A2
S11314A0C701B601D1D5A301920182D76B017C019A
S11314B020E030E0A9012DD6882324F4F7FAF09433
S11314C0F7F8F0948FEF281A380A200E311EC7015E
S11314D0B6018BD6072E000C880B990B9E01A10137
S11314E02EDFC801DF91CF911F910F91FF90EF90F4
S11314F0DF90CF90BF90AF909F908F907F906F9030
S11315005F904F903F902F900895E091E302F09107
S1131510E40290819D7F9083672B41F0E091E30288
S1131520F091E40290819160908307C0E091E3021E
S1131530F091E40290819E7F9083E091E002F0912B
S1131540E1029081906F9083E091E302F091E402D4
S1131550908194609083882344F4E091E302F091B5
S1131560E40290819068908307C0E091E302F091D7
S1131570E40290819F77908386FF08C0E091E302A4
S1131580F091E40290819064908307C0E091E302BB
S1131590F091E40290819F7B908385FF08C0E091E5
S11315A0E302F091E40290819062908307C0E0919D
S11315B0E302F091E40290819F7D908384FF08C050
S11315C0E091E302F091E40290819061908307C07E
S11315D0E091E302F091E40290819F7E9083E09198
S11315E0E302F091E40290819B7F9083E091E30217
S11315F0F091E40290819460908383FF08C0E091AD
S1131600E302F091E40290819068908307C0E09136
S1131610E302F091E40290819F77908382FF08C0F7
S1131620E091E302F091E40290819064908307C01A
S1131630E091E302F091E40290819F7B908381FF2B
S113164008C0E091E302F091E402908190629083FB
S113165007C0E091E302F091E40290819F7D9083C2
S113166080FF08C0E091E302F091E4028081806190
S1131670808307C0E091E302F091E40280818F7ED1
S11316808083E091E302F091E40280818B7F808388
S11316900895E091E002F091E10220812F7020830F
S11316A0E091E302F091E4022081206F2083E09135
S11316B0E302F091E402208122602083892B41F02F
S11316C0E091E302F091E40280818160808307C0AD
S11316D0E091E302F091E40280818E7F8083E091C7
S11316E0E302F091E402808184608083E091D90276
S11316F0F091DA028081882314F080E001C080E850
S1131700908196FF02C0806401C08F7B908195FF19
S113171002C0806201C08F7D908194FF02C080610D
S113172001C08F7EE091E302F091E40290819B7FFF
S11317309083E091E302F091E402908194609083BD
S1131740E091D902F091DA029081992314F488602F
S113175001C0877F908196FF02C0846001C08B7FA7
S1131760908195FF02C0826001C08D7F908194FFBB
S113177002C0816001C08E7FE091E302F091E40237
S113178090819B7F90830895CF93DF9380E090E0D6
S113179080DFCBE0D0E005C080E090E07ADF2197E5
S11317A011F08823CCF3DF91CF91089561E070E0CC
S11317B0ACDEEACF0895CF9381E090E06ADFC82FD2
S11317C0E3DF8C2FCF910895CF93DF93EC018881D1
S11317D0882341F0219661E070E097DED5DF89919E
S11317E08111F9CFDF91CF9108950F931F93CF9378
S11317F0DF93FC01D62F8081882351F08F010F5F86
S11318001F4F611109C01BC0CF5FDC1730F401C04A
S1131810C0E0CD1760F013C0C1E061E070E075DE98
S1131820B3DFF80181918F018111EECFF2CFCF5F49
S113183061E070E080E269DEA7DFCD17C0F3DF91DD
S1131840CF911F910F910895CF93C82F882339F01A
S113185061E070E080E259DE97DFC150C9F7CF91B3
S11318600895262F8130910571F030F08230910572
S113187089F00397B1F0089560E070E080E8820F8A
S113188044DE82CF089560E070E080EC820F3DDE9C
S11318907BCF089560E070E084E9820F36DE74CF78
S11318A0089560E070E084ED820F2FDE6DCF08951F
S11318B060E070E081E029DE87EE97E10197F1F7BF
S11318C000C000000895E091E002F091E10287E099
S11318D08083E091E302F091E40288E080832FEFBB
S11318E083EF91E0215080409040E1F700C0000078
S11318F060E070E083E309DE20ED2A95F1F760E013
S113190070E083E302DE80ED8A95F1F760E070E039
S11319108BE2FBDD95EC9A95F1F7000060E070E056
S11319208CE0F3DD25EC2A95F1F7000060E070E02F
S113193081E0EBDD87EE97E10197F1F700C000004D
S113194060E070E086E0E1DD95EC9A95F1F7000047
S113195008951F93CF93DF93EC011FB78FB78F7751
S11319608FBF7093E1026093E0025093DA024093D8
S1131970D9023093E4022093E302FB011082E09148
S1131980E302F091E4028FEF8083E091D902F091B9
S1131990DA02808188708093E20295DF1FBF85E8B8
S11319A09AE09983888389E49BE09B838A8384EC0F
S11319B09BE09D838C8386ED9BE09F838E838BEDE0
S11319C09BE09987888784EE9BE09B878A8785EFD5
S11319D09BE09D878C8784E29CE09F878E8788E5C7
S11319E09CE0998B888B81E39CE09B8B8A8B80E0C5
S11319F09DE09D8B8C8BCE01DF91CF911F9108953B
S1131A00CF93E091D902F091DA02C081C87080913D
S1131A10E2028C278C2309F056DFC093E202CF91B7
S1131A20089521E0FC0120830895FC01808108953C
S1131A30E091EA02F091EB02208181E090E00090D5
S1131A40EE0202C0880F991F0A94E2F7822B80836A
S1131A508EE690E00197F1F7E091E802F091E90257
S1131A60408121E030E0C9010090E70202C0880F04
S1131A70991F0A94E2F7E091EA02F091EB02908157
S1131A800090EE0202C0220F331F0A94E2F7209561
S1131A902923208384230895603479F0603819F071
S1131AA0603281F405C021E0FC0122832383089580
S1131AB022E0FC0122832383089523E0FC01228396
S1131AC02383089521E0FC012283238308950F9347
S1131AD01F93CF93DF93EC0119850C8105969093A6
S1131AE0ED028093EC02E091E802F091E90280813A
S1131AF090E00090E70202C0959587950A94E2F77A
S1131B0080FD06C08881811107C081E08883A89880
S1131B108881882309F449C08C81882329F188DFCE
S1131B208823A9F01150812F90E0FE01E80FF91FDE
S1131B30015028E0129F0019112481E090E002C0B6
S1131B40880F991F0A95E2F79581892B85838C81EB
S1131B5081508C83803119F482E0898726C08830D3
S1131B6021F581E0898721C08B81882329F060DFFA
S1131B708B8181508B8319C0E091EC02F091ED02CE
S1131B8080819181A281B3818A879B87AC87BD873D
S1131B9088E18C8383E089878A818B831D821E82FE
S1131BA01F82188681E0898318826A857B858C85EB
S1131BB09D85DF91CF911F910F910895EF920F931F
S1131BC0FC01DA015FB78FB78F778FBF7093F00294
S1131BD06093EF02B093E902A093E8023093EB0222
S1131BE02093EA020093E702E092EE02DB014C91BB
S1131BF081E090E09C0102C0220F331FEA94E2F7D7
S1131C00242B2C93A091EA02B091EB022C9102C0F8
S1131C10880F991F0A95E2F7822B8C935FBF10827D
S1131C20118281E08283838388E184831582168212
S1131C301782108683E081871286138614861586A0
S1131C4082E091E9A0E0B0E086879787A08BB18B12
S1131C508DE891E2A1E0B0E0828B938BA48BB58BED
S1131C608CE290E4A2E0B0E0868B978BA08FB18FDA
S1131C7087E1828F8EE2858F8CE580A381E19DE0F0
S1131C8094A383A385E19DE096A385A388E19DE0C9
S1131C9090A787A38CE49DE092A781A787E69DE0A7
S1131CA094A783A7CF010F91EF9008958FEF84BB82
S1131CB085BB0895CF93DF93CDB7DEB7C75BD1095A
S1131CC00FB6F894DEBF0FBECDBFF0DFCE01019694
S1131CD072DA8DA19EA1CA54DF4F99838883C65BB3
S1131CE0D0402D96EEADFFAD2D97CC54DF4FF98348
S1131CF0E883C45BD0402BE330E049E350E06AE37F
S1131D0070E0CE01835B9F4F24DE6B96CEACDFACDC
S1131D106B97A1962EAC3FACA19742E062E0CE0156
S1131D208D599F4F0E945B0240E064E0CE018D58C4
S1131D309F4F0E949F020F2EF7E0EF2EF02D06E03A
S1131D4022E630E040E250E061E670E0CE018D57DB
S1131D509F4F34DF8DE2FE01ED57FF4FA9E0B3E062
S1131D6001900D928A95E1F71092F1021092F2021D
S1131D701092F3021092F402A596EEADFFADA59772
S1131D8081E00995AB96EEADFFADAB978FE4099575
S1131D90E196EEADFFADE19781E090E00995EB9619
S1131DA0EEADFFADEB9782E390E00995E596EEADDD
S1131DB0FFADE59781E00995C158DF4FE881F981CE
S1131DC0CF57D04080E091E00995E0913203F09143
S1131DD0330360E889E093E00995812C912C540148
S1131DE010E0C055DF4F188219821A821B82C05B33
S1131DF0D0400F2EF9E0EF2EF3E0FF2EF02DA39646
S1131E00EEADFFADA3970995F7018181882309F40D
S1131E104FC0133030F58091F1029091F202A091FD
S1131E20F302B091F402880E991EAA1EBB1E1F5F16
S1131E3060E070E083E090E0F10109956091F102C7
S1131E407091F2028091F3029091F402CA54DF4F30
S1131E50E881F981C65BD040099563E0F6010995F4
S1131E6025C0C501B4012BEA3AEA4AEA5AEAFED48B
S1131E7000E225D5422E532E642E752EC301B201E5
S1131E809695879577956795E1D1C055DF4F68831F
S1131E9079838A839B83C05BD0408090F1029090C9
S1131EA0F202A090F302B090F40211E0F701118263
S1131EB060E070E080E090E0F10109956091F1024A
S1131EC07091F2028091F3029091F402CA54DF4FB0
S1131ED0E881F981C65BD040099568E0F60109956F
S1131EE063E080E091E0F601099560E070E081E054
S1131EF090E0F1010995F7016289738984899589D4
S1131F00A7D19B01AC01C055DF4F688179818A81DB
S1131F109B81C05BD04098D02B013C01F701658DBB
S1131F2070E080E090E094D19B01AC01C301B20168
S1131F30F4D020E030E045EF52E0CC54DF4FE881AC
S1131F40F981C45BD040099568E0F601099564E025
S1131F5084E091E0F601099560E070E082E090E0B1
S1131F60F1010995F70166897789808D918D70D18A
S1131F709B01AC01C055DF4F688179818A819B81C7
S1131F80C05BD04061D02B013C01F70160A170E03F
S1131F9080E090E05DD19B01AC01C301B201BDD0F2
S1131FA020E030E045EF52E0CC54DF4FE881F98186
S1131FB0C45BD040099568E0F601099564E084E0CB
S1131FC091E0F60109951BCF1F920F920FB60F9265
S1131FD011240BB60F922F933F934F935F936F93FC
S1131FE07F938F939F93AF93BF93CF93EF93FF937D
S1131FF0CFB78FB78F778FBFE0913403F09135035C
S113200089E093E009956093F1027093F202809362
S1132010F3029093F40295B381E0892785BBCFBF87
S1132020FF91EF91CF91BF91AF919F918F917F914C
S11320306F915F914F913F912F910F900BBE0F9035
S11320400FBE0F901F9018955058BB27AA270ED08B
S113205075C166D130F06BD120F031F49F3F11F49B
S11320601EF45BC10EF4E095E7FB51C1E92F77D173
S113207080F3BA17620773078407950718F071F4A1
S11320809EF58FC10EF4E0950B2EBA2FA02D0B01F7
S1132090B90190010C01CA01A0011124FF27591BA9
S11320A099F0593F50F4503E68F11A16F040A22FAF
S11320B0232F342F4427585FF3CF46953795279520
S11320C0A795F0405395C9F77EF41F16BA0B620B1F
S11320D0730B840BBAF09150A1F0FF0FBB1F661F66
S11320E0771F881FC2F70EC0BA0F621F731F841FA9
S11320F048F4879577956795B795F7959E3F08F0CF
S1132100B3CF9395880F08F09927EE0F979587958D
S11321100895D9D008F481E008950CD00FC107D1F7
S113212040F0FED030F021F45F3F19F0F0C05111BF
S113213039C1F3C014D198F39923C9F35523B1F3EA
S1132140951B550BBB27AA2762177307840738F022
S11321509F5F5F4F220F331F441FAA1FA9F333D081
S11321600E2E3AF0E0E830D091505040E695001C35
S1132170CAF729D0FE2F27D0660F771F881FBB1FF1
S1132180261737074807AB07B0E809F0BB0B802DCB
S1132190BF01FF2793585F4F2AF09E3F510568F017
S11321A0B6C000C15F3FECF3983EDCF386957795AB
S11321B06795B795F7959F5FC9F7880F911D969519
S11321C0879597F90895E1E0660F771F881FBB1F75
S11321D0621773078407BA0720F0621B730B840B22
S11321E0BA0BEE1F88F7E095089504D06894B111F6
S11321F0D9C00895BCD088F09F5790F0B92F992783
S1132200B751A0F0D1F0660F771F881F991F1AF0FD
S1132210BA95C9F712C0B13081F0C3D0B1E00895C6
S1132220C0C0672F782F8827B85F39F0B93FCCF347
S1132230869577956795B395D9F73EF490958095F3
S1132240709561957F4F8F4F9F4F0895E89409C013
S113225097FB3EF490958095709561957F4F8F4FD5
S11322609F4F9923A9F0F92F96E9BB279395F695EB
S1132270879577956795B795F111F8CFFAF4BB0F69
S113228011F460FF1BC06F5F7F4F8F4F9F4F16C0CD
S1132290882311F096E911C0772321F09EE8872F57
S11322A0762F05C0662371F096E8862F70E060E013
S11322B02AF09A95660F771F881FDAF7880F96958C
S11322C0879597F90895990F0008550FAA0BE0E830
S11322D0FEEF16161706E807F907C0F012161306E4
S11322E0E407F50798F0621B730B840B950B39F424
S11322F00A2661F0232B242B252B21F408950A268A
S113230009F4A140A6958FEF811D811D089597F9C9
S11323109F6780E870E060E008959FEF80EC089587
S113232000240A94161617061806090608950024B0
S11323300A9412161306140605060895092E03942A
S1132340000C11F4882352F0BB0F40F4BF2B11F49E
S113235060FF04C06F5F7F4F8F4F9F4F089557FDFD
S11323609058440F551F59F05F3F71F04795880FFF
S113237097FB991F61F09F3F79F087950895121696
S113238013061406551FF2CF4695F1DF08C0161642
S113239017061806991FF1CF8695710561050894F3
S11323A00895E894BB2766277727CB0197F908950A
S11323B00BD0C4CFB5DF28F0BADF18F0952309F0AD
S11323C0A6CFABCF1124EECFCADFA0F3959FD1F3F4
S11323D0950F50E0551F629FF001729FBB27F00DCF
S11323E0B11D639FAA27F00DB11DAA1F649F662724
S11323F0B00DA11D661F829F2227B00DA11D621F73
S1132400739FB00DA11D621F839FA00D611D221F2C
S1132410749F3327A00D611D231F849F600D211D10
S1132420822F762F6A2F11249F5750408AF0E1F0B3
S113243088234AF0EE0FFF1FBB1F661F771F881FFC
S113244091505040A9F79E3F510570F060CFAACF3C
S11324505F3FECF3983EDCF3869577956795B795E7
S1132460F795E7959F5FC1F7FE2B880F911D969511
S1132470879597F90895FA01EE0FFF1F309621050D
S1132480310599F16115710561F48038BFE39B074B
S113249049F168949038810561F08038BFEF9B075B
S11324A041F0992342F5FF3FE1053105210511F182
S11324B0E8940894E795D901AA2329F4AB2FBE2FF9
S11324C0F85FD0F310C0FF5F70F4A695E0F7F7391A
S11324D050F019F0FF3A38F49F779F930CD00F9087
S11324E007FC905808953EF018CF60E070E080E853
S11324F09FE308954FE79F775F934F933F932F9305
S11325009ED02F913F914F915F9152DF05C019F4F6
S11325100EF0FDCE46CF01CF2ADFC8F39638C0F7C0
S113252007F80F92E8942BE33AEA48EB5FE74EDFB3
S11325300F920F920F924DB75EB70F92C0D0E2EC9C
S1132540F0E016D04F915F91EF91FF91E595EE1F6A
S1132550FF1F49F0FE57E0684427EE0F441FFA9529
S1132560E1F74195550B32D00F9007FE26C0089530
S1132570DF93CF931F930F93FF92EF92DF927B0130
S11325808C01689405C0DA2EEF011EDFFE01E89489
S1132590A5912591359145915591AEF3EF0166DDF5
S11325A0FE019701A801DA9479F7DF90EF90FF908C
S11325B00F911F91CF91DF9108959B01AC0160E0D1
S11325C070E080E89FE3A9CDA2CEACC0D0DEE8F3F2
S11325D09923D9F3940F511DBBF39150504094F0BB
S11325E059F0882332F0660F771F881F91505040AE
S11325F0C1F79E3F510544F7880F911D9695879525
S113260097F908955F3FACF0983E9CF0BB27869500
S113261077956795B79508F4B1609395C1F7BB0FAB
S113262058F711F460FFE8CF6F5F7F4F8F4F9F4FD4
S1132630E3CFB8CE0EF076C070CE689468CE97DE45
S1132640C8F39923D1F3C6F3DF93CF931F930F936A
S1132650FF92C92FDD2788232AF02197660F771F61
S1132660881FDAF720E030E040E85FEB9FE3883929
S113267020F0803E30F021968F77E7DCEAEEF0E040
S113268003C0E3DCE7E1F1E073DF8B01BE01EC01A1
S1132690FB2E6F5771097595771F880B990BD8DD41
S11326A028E132E741E35FE38FDEAF2D9801AE010D
S11326B0FF900F911F91CF91DF91D8DC3FCEFA01AB
S11326C0DC01AA0FBB1F9B01AC01BF5728F42227D2
S11326D03327442750781FC0B75188F4AB2F002408
S11326E0469537952795011CA395D2F3002069F0F0
S11326F0220F331F441FB395DAF30DD0A5CC6130FC
S11327007105A0E88A07B94630F49B01AC0166273D
S1132710772788279078309621F02083318342836D
S1132720538308959F3F31F0915020F48795779516
S11327306795B795880F911D9695879597F9089594
S1132740DB018F939F9388D0BF91AF91A29F800D9F
S1132750911DA39F900DB29F900D11240895AA1B63
S1132760BB1B51E107C0AA1FBB1FA617B70710F078
S1132770A61BB70B881F991F5A95A9F780959095AA
S1132780BC01CD01089597FB072E16F4009406D0E2
S113279077FD08D0E4DF07FC05D03EF490958195E1
S11327A09F4F0895709561957F4F0895A1E21A2E69
S11327B0AA1BBB1BFD010DC0AA1FBB1FEE1FFF1FE1
S11327C0A217B307E407F50720F0A21BB30BE40B31
S11327D0F50B661F771F881F991F1A9469F7609578
S11327E07095809590959B01AC01BD01CF01089532
S11327F0052E97FB16F400940FD057FD05D0D6DFB5
S113280007FC02D046F408C05095409530952195B8
S11328103F4F4F4F5F4F0895909580957095619508
S11328207F4F8F4F9F4F0895EE0FFF1F0024001C12
S11328300BBE0790F691E02D0994A29FB001B39FBF
S1132840C001A39F700D811D1124911DB29F700DB5
S1132850811D1124911D0895F0DFA59F900DB49F53
S1132860900DA49F800D911D11240895E894DF9389
S1132870CF93FC01DB01E1DF7F936F93E9019A01C0
S1132880AC01BF93AF933F932F93DF01D6DF26F4C0
S11328906C1B7D0B820B930B9E01EB01FC012BD077
S11328A0AF91BF912F913F9126D0BE01CF01F90185
S11328B02F913F91CF91DF91089597FB10F81694D3
S11328C000080F93083098F00850232F342F452F19
S11328D0562F672F782F892F902DF4CF0594979535
S11328E087957795679557954795379527950A95D1
S11328F0AAF70F910895A1DF460F571FC81FD91FCC
S10D290008F431960895F894FFCF0F
S10D290A726177006772616D0000CE
S9030000FC
