S011000041746D6567613132382E7372656329
S1130000A1C00000BFC00000BCC00000C5C000000B
S1130010CDC00000D5C00000DDC00000E5C0000078
S1130020EDC00000AEC000006EC3000044C3000079
S11300300C94A6134AC300005CC300000C94721312
S113004030C300009EC000009CC000009AC00000A5
S113005098C0000096C0000094C0000092C0000048
S11300603EC300005AC3000062C300006AC300001C
S113007072C300007AC3000084C0000082C0000084
S113008080C000007EC000007CC0000072027602C6
S11300907A027E0282028902900297029B02A202E5
S11300A0A902B002B402BB02C202DE02E202E6020C
S11300B0EA02F002F402F802FC02050309030D034C
S11300C0160307634236B79BD8A71A39685618AE89
S11300D0BAAB558C1D3CB7CC5763BD6DEDFD753E79
S11300E0F6177231BF000000803F08000000BE9286
S11300F02449123EABAAAA2ABECDCCCC4C3E000069
S11301000080BEABAAAAAA3E00000000BF00000007
S1130110803F0000000000084178D3BB4387D1131F
S11301203D190E3CC3BD4282AD2B3E68EC8276BEC7
S1130130D98FE1A93E4C80EFFFBE01C4FF7F3F0091
S11301400000000011241FBECFEFD0E1DEBFCDBF01
S113015011E0A0E0B1E0E2E5F2E300E00BBF02C091
S113016007900D92A834B107D9F722E0A8E4B1E0D2
S113017001C01D92A935B207E1F70E94680E0C94E4
S113018027193ECF1F920F920FB60F9211240F9092
S11301900FBE0F901F9018951F920F920FB60F92DB
S11301A011240F900FBE0F901F9018951F920F925D
S11301B00FB60F9211240F900FBE0F901F90189539
S11301C01F920F920FB60F9211240F900FBE0F9033
S11301D01F9018951F920F920FB60F9211240F9033
S11301E00FBE0F901F9018951F920F920FB60F928B
S11301F011240F900FBE0F901F9018951F920F920D
S11302000FB60F9211240F900FBE0F901F901895E8
S113021020914E01211141C023B7287F23BF803490
S1130220910511F148F488309105B1F080329105BF
S1130230B9F0019749F50CC0811521E09207E1F06E
S1130240811524E09207E1F080389105E9F410C0AB
S113025083B7816083BF1BC083B7826083BF17C02D
S113026083B7836083BF13C083B7846083BF0FC029
S113027083B7856083BF0BC083B7866083BF07C025
S113028083B7876083BF03C083B7876083BF8FB79B
S113029080688FBF81E080934E01089593B79F7C5F
S11302A093BF823051F0833071F0813089F480E162
S11302B087BB83B7806183BF089580E187BB83B721
S11302C0806283BF089580E187BB83B7806383BF67
S11302D0089581BF089583B7887F83BF12BE1092AB
S11302E04E01089520914B01211141C02EB5287F64
S11302F02EBD88309105D1F048F48330910531F159
S11303008530910539F1019749F50CC0811521E03B
S11303109207A1F0811524E09207A1F080349105A1
S1130320E9F408C08EB581608EBD1BC08EB58260B5
S11303308EBD17C08EB583608EBD13C08EB584602C
S11303408EBD0FC08EB585608EBD0BC08EB5866028
S11303508EBD07C08EB587608EBD03C08EB5856027
S11303608EBD8FB780688FBF81E080934B01089565
S11303709FB59F739FBD823049F0833061F0813017
S113038071F4BD9A8FB580648FBD0895BD9A8FB501
S113039080688FBD0895BD9A8FB5806C8FBD089518
S11303A09FB59F7C9FBD823049F0833061F08130DE
S11303B071F4BE9A8FB580618FBD0895BE9A8FB5D2
S11303C080628FBD0895BE9A8FB580638FBD0895F6
S11303D09FB5937F9FBD823049F0833061F08130B7
S11303E071F4BF9A8FB584608FBD0895BF9A8FB59D
S11303F088608FBD0895BF9A8FB58C608FBD0895B6
S11304009BBD8ABD089599BD88BD089590937900D8
S11304108093780008958EB5887F8EBD1DBC1CBC6A
S113042010924B01089510924E012FEF21BF23B774
S1130430277B23BF623041F0633051F0613059F4BF
S113044023B7206423BF07C023B7286023BF03C09A
S113045023B7286423BF27B72E7F27BF27B72D7F55
S113046027BF423041F0433051F0413071F427B797
S1130470216027BF0AC027B7226027BF06C027B75D
S1130480216027BF27B7226027BF2EE431E0FC019B
S11304903183208329E631E03783268328E031E065
S11304A0358724872BE631E03787268708950F9315
S11304B01F93DC0110924B018FEF9FEF9BBD8ABD10
S11304C08FB58C7F8FBD8EB5877E8EBD062F10E0D5
S11304D0F8013197EF30F10508F05AC0EA5BFF4F9D
S11304E00C9468188FB581608FBD52C08FB582603F
S11304F08FBD4EC08FB583608FBD4AC08EB58860F6
S11305008EBD46C08FB581608FBD8EB588608EBDAF
S11305103FC08FB582608FBD8EB588608EBD38C0F8
S11305208FB583608FBD8EB588608EBD31C08EB5AA
S113053080618EBD2DC08FB581608FBD8EB5806109
S11305408EBD26C08FB582608FBD8EB580618EBD95
S11305501FC08FB583608FBD8EB580618EBD18C0FE
S11305608EB588618EBD14C08FB581608FBD8EB588
S113057088618EBD0DC08FB582608FBD8EB58861D8
S11305808EBD06C08FB583608FBD8EB588618EBD6C
S11305908FB583708FBD87B7837C87BFEDE7F0E0AD
S11305A080818E7F808350E0FA013197EC30F10531
S11305B008F044C0EB5AFF4F0C94681887B7846066
S11305C087BF3CC087B7806187BF38C087B7886062
S11305D087BF34C0EDE7F0E08081816080832EC066
S11305E087B7806287BF2AC087B7846187BF26C068
S11305F087B78C6087BF22C087B7846087BFEDE769
S1130600F0E080818160808319C087B7846287BFEE
S113061015C087B78C6187BF11C087B78C6187BF4E
S1130620EDE7F0E080818160808308C087B788614E
S113063087BFEDE7F0E080818160808388EB91E003
S113064011969C938E9380ED91E013969C938E93D8
S1130650129788EE91E015969C938E93149780E000
S113066092E017969C938E93169783E092E01996E6
S11306709C938E93189786E092E01B969C938E939E
S11306801A9782E791E01D969C938E931C978BE0BA
S113069092E01F969C938E931E97CD011F910F910C
S11306A008951F920F920FB60F9211240F900FBE50
S11306B00F901F9018951F920F920FB60F9211244E
S11306C00F900FBE0F901F9018951F920F920FB6A8
S11306D00F9211240F900FBE0F901F9018951F9228
S11306E00F920FB60F9211240F900FBE0F901F9010
S11306F018951F920F920FB60F9211240F900FBEF0
S11307000F901F9018951F920F920FB60F921124FD
S11307100F900FBE0F901F9018951F920F920FB657
S11307200F9211240F900FBE0F901F9018951F92D7
S11307300F920FB60F9211240F900FBE0F901F90BF
S113074018951F920F920FB60F9211240F900FBE9F
S11307500F901F9018951F920F920FB60F921124AD
S11307600F900FBE0F901F9018951F920F920FB607
S11307700F9211240F900FBE0F901F901895FC013B
S113078080ED98E19183808382E199E19383828370
S11307908CEE98E19583848388ED98E19783868332
S11307A084E299E19187808785E099E19387828744
S11307B08FE199E1978786878FE199E1958B848B07
S11307C08DEF98E1978B868B80EC98E1918F808FE9
S11307D089E099E1938F828F8DED98E1958F848FD5
S11307E0CF010895FC01828193819183808370E01D
S11307F0738362830895FC01908182818923089523
S1130800FC0190818281892B80950895FC0192815D
S11308108081892789230895FC0190818281892719
S113082089230895FC019281808189270895FC0120
S113083082810895DC01662339F091E021E0220FE2
S11308409F5F6917E0F701C021E030E021503109D2
S1130850ED91FC911197E223F3231196FC93EE930F
S113086012964D915C9113972423352313963C9350
S11308702E931297CF01822793272823392302C06E
S1130880220F331F6A95E2F7822B0895FC019FB76C
S11308908FB78F778FBF9FBF11821082138212820E
S11308A082EF93E0958384838AE194E0978386833F
S11308B08BEF93E09187808780E094E09387828731
S11308C086E094E0958784878CE094E09787868718
S11308D082E194E0918B808B87E194E0938B828B0F
S11308E0CF0108956823442321F0861721F080E086
S11308F00895611180E00895862B08958623089554
S113090086230895862B8095089586278623089547
S113091060958623089586270895CF92DF92EF92FB
S1130920FF920F931F93FC01008111812281338177
S1130930FB01C080D180E280F380FC01C082D182BF
S1130940E282F382FB0100831183228333831F91AC
S11309500F91FF90EF90DF90CF900895FB012081DD
S1130960FC012083222339F0DB01119631969D91FD
S113097091939111FCCF0895CF93DF93EC0198816B
S1130980992399F0FE01319620E030E0492F50E0A0
S11309904617570731F0DE01A20FB31F9C932F5F58
S11309A03F4F91919111F2CF02C020E030E0FE015F
S11309B0E20FF31F1082DF91CF9108952F923F929F
S11309C04F925F926F927F928F929F92AF92BF925B
S11309D0CF92DF92EF92FF920F931F93CF93DF9307
S11309E000D000D0CDB7DEB72C011B014B0177231B
S11309F01CF42FEF821A920A959487941814190400
S1130A000CF451C06AC09601DD209CF1F5014081CF
S1130A105181F401608171816417750754F58C016B
S1130A200A0D1B1DD401BC82AB82BA82A982EB8160
S1130A30FC817183608311965C934E932E193F0958
S1130A40C2F0F80140815181E981FA8160817181AC
S1130A50080F191FE80FF91FFA83E983EB81FC8162
S1130A60E80FF91FFC83EB83A80FB91F6417750700
S1130A70F4F2FFEFCF1ADF0A22E0A20EB11CE2E08B
S1130A808E0E911CC614D70409F0BDCF4701FF2078
S1130A901CF4FFEF8F1A9F0A959487941814190475
S1130AA0E4F4740101C07401821493047CF76401BA
S1130AB0CE18DF085601AA0CBB1CA40CB51C880C6C
S1130AC0991C840C951C31016E187F08C701880F8E
S1130AD0991F91958195910996CF0F900F900F9042
S1130AE00F90DF91CF911F910F91FF90EF90DF90C6
S1130AF0CF90BF90AF909F908F907F906F905F90BA
S1130B004F903F902F900895861797070CF4CB01D0
S1130B1008959B01672B11F408959A01B9010E946D
S1130B203918AC01822F932F41155105B1F708955F
S1130B30FC01908180ED890F8A30D0F4319620E059
S1130B4030E0A901440F551F220F331F220F331F1A
S1130B50220F331F420F531F292F30E02053310936
S1130B60240F351F919180ED890F8A3050F302C014
S1130B7020E030E0C901089586230895009739F0F4
S1130B8020E030E02F5F3F4F82179307D9F7089595
S1130B9087FF08C091958195910999279195819531
S1130BA0910908958F779927089591FF08C0919529
S1130BB0819591099370919581959109089591700A
S1130BC00895615021E030E002C0220F331F6A957E
S1130BD0E2F7A90141505109B90168237923672B30
S1130BE029F084239523821B930B08958423952352
S1130BF008959DEC899F912D11249695969596952F
S1130C00392F330F232F220F220F230F821B20E1B2
S1130C10929F800D11240895982F92959F70990F9B
S1130C20292F220F220F920F8F70890F0895FC0134
S1130C30DB01A15BBE4F1C921616170614F59081BA
S1130C4091110CC017C0919191110DC015C08193E1
S1130C502F5F3F4F26173707D4F313C0AFE4B1E03B
S1130C60319620E030E09D932F5F3F4F621773076A
S1130C7051F707C020E030E0F901E15BFE4F80E26C
S1130C80E6CF8FE491E008954F925F926F927F9246
S1130C90AF92BF92CF92DF92EF92FF920F931F9386
S1130CA0CF93DF93CDB7DEB729013A019B01AC01A5
S1130CB0241935094609570989899A89AB89BC8958
S1130CC0BC01CD016A197B098C099D090E942A186F
S1130CD0A801970124193509460957090E944C189F
S1130CE0CA01B9016A0D7B1D8C1D9D1DDF91CF9139
S1130CF01F910F91FF90EF90DF90CF90BF90AF9036
S1130D007F906F905F904F90089570E0611571052A
S1130D1099F041E050E021E030E090E0FA01E89FF2
S1130D20A001E99F500DF89F500D11242F5F3F4FF4
S1130D306217730798F702C041E050E0CA010895B2
S1130D40FC012081222341F0319680E090E001965D
S1130D5021912111FCCF089580E090E00895CF9374
S1130D60DF93EC01EDDF9C012150310962F0FE01BB
S1130D70E80FF91F9291903219F09950923018F4BB
S1130D8021503109B8F7C20FD31F1982C901DF916D
S1130D90CF910895CF93DF93EC01D2DF9C012150D2
S1130DA031091216130684F4DE01A80FB91FFE01DF
S1130DB080E090E040815E9151934C9301962150E4
S1130DC0310982179307B4F3DF91CF9108958F927D
S1130DD09F92AF92BF92CF92DF92EF92FF920F93C6
S1130DE01F93CF93DF936B017C01DC01CB01FF20C8
S1130DF03CF488279927DC018C199D09AE09BF09A9
S1130E00BC01CD0110E00F2EFAE08F2E912CA12C05
S1130E10B12CF02D01C0102F01E0010FC12FD0E043
S1130E20C15BDE4FA50194010E944C18605D68838C
S1130E30622F732F842F952F16161706180619067E
S1130E4054F3FF2044F4E02FF0E0E15BFE4F8DE229
S1130E50808302E0010FE02FF0E0E15BFE4F10829F
S1130E608FE491E097DF8FE491E0DF91CF911F91C0
S1130E700F91FF90EF90DF90CF90BF90AF909F9035
S1130E808F9008950F931F93CF93DF93EC019923D1
S1130E9024F4882799278C1B9D0B20E00AE010E09E
S1130EA001C0232F31E0320FE22FF0E0E15BFE4F6F
S1130EB0B8010E943918805D8083862F972F1816F9
S1130EC019067CF3DD2344F4E32FF0E0E15BFE4FED
S1130ED08DE2808332E0320FE32FF0E0E15BFE4FDE
S1130EE010828FE491E056DF8FE491E0DF91CF919F
S1130EF01F910F910895CF93AC01E0E0C1E0CE0FB4
S1130F00F0E0E15BFE4F9A01ADECBCEC0E9471187D
S1130F109695879596958795969587959C01220F2A
S1130F20331F880F991F880F991F880F991F820FED
S1130F30931F9A01281B390BC901805D80839A0194
S1130F400E947118AC01569547955695479556954C
S1130F504795EC2F4115510589F6EC2FF0E0E15B44
S1130F60FE4F10828FE491E015DF8FE491E0CF9182
S1130F700895982F92959F70990F292F220F220F71
S1130F80920F8F70890F0895AC019C01ADECBCECFD
S1130F900E9471189695879596958795969587954D
S1130FA0BC01660F771F9C01220F331F220F331FD2
S1130FB0220F331F260F371F421B530B342F20E100
S1130FC0829F300D1124832F0895CF92DF92EF92E8
S1130FD0FF92CF93DF93CDB7DEB728970FB6F8947F
S1130FE0DEBF0FBECDBF6B017C0169837A838B8327
S1130FF09C832D833E834F835887C216D306E40611
S1131000F50634F4BE016B5F7F4FCE01019685DC9B
S11310108D819E81AF81B885892B8A2B8B2B71F4AE
S113102069817A818B819C8120E030E0A9010E9452
S11310304C18611571058105910529F46D817E8136
S11310408F81988505C06D837E838F839887F6CFC3
S113105028960FB6F894DEBF0FBECDBFDF91CF91B7
S1131060FF90EF90DF90CF90089590E002C09595A7
S113107087956A95E2F781700895EFE4F1E090E0D6
S113108020E850E341E3382F322311F0408301C0BC
S1131090508326959F5F31969830A9F71092570197
S11310A08FE491E00895A42FB0E0109761F021E05F
S11310B030E0E1E0F0E0EE0FFF1F2F5F3F4FA2179B
S11310C0B307C8F702C0E1E0F0E031976E237F2355
S11310D08E239F23862797276823792302C0660FD0
S11310E0771F4A95E2F7862B972B0895FC019FB74B
S11310F08FB78F778FBF9FBF85E896E091838083FA
S113110080EA96E0938382838AEC96E095838483D5
S113111083E598E09783868382E794E091878087CC
S113112080E894E09387828782E894E095878487B7
S113113085E894E09787868788E894E0918B808B94
S11311408BE894E0938B828B8CE794E0958B848B73
S11311508EE794E0978B868B8DE894E0918F808F57
S11311608EEA94E0938F828F8CEB94E0958F848F3A
S11311708EED94E0978F868F82E497E091A380A30D
S11311808BE797E093A382A387EE96E095A384A3CD
S11311908FEA96E097A386A384E895E091A780A7B9
S11311A089E895E093A782A788E995E095A784A7A5
S11311B08CEB95E097A786A78EEB95E091AB80AB7F
S11311C088EC95E093AB82AB85ED95E095AB84AB71
S11311D081EE95E097AB86AB89EF95E091AF80AF58
S11311E08CE096E093AF82AF87E196E095AF84AF51
S11311F084E496E097AF86AFDF01A05CBF4F89EB34
S113120097E011969C938E93129684EC97E0119636
S11312109C938E93129685EE97E011969C938E93F1
S1131220129685E398E011969C938E9312968DE323
S113123098E011969C938E9312968DE799E08D9386
S11312409C93CF0108958F929F92AF92BF92EF9299
S1131250FF920F931F93CF93DF938A01D22F2AE03B
S113126030E040E050E00E944C18605DF80160837B
S1131270622F732F842F952F16161706180619063A
S1131280FCF421E00F2EFAE08F2E912CA12CB12C2E
S1131290F02DC1E0C20F7801E20EF11CA50194010A
S11312A00E944C18605DF7016083622F732F842FB6
S11312B0952F2C2F161617061806190654F301C07D
S11312C0C1E0CD1748F480E3F801EC0FF11D8083F1
S11312D0CF5FDC13F9CF01C0DC2FF801ED0FF11D56
S11312E010828D2FDF91CF911F910F91FF90EF907E
S11312F0BF90AF909F908F9008954F925F926F929E
S11313007F928F929F92AF92BF92CF92DF92EF9291
S1131310FF921F93CF93DF936B017C01EA01122F9D
S113132020E030E0A9010E940F1588230CF04DC085
S1131330F7FAF094F7F8F094C701B6010E947B1510
S11313404B015C010E94AE159B01AC01C701B601C3
S11313500E94AA142B013C0121E0AE01C501B40195
S113136072DFFF24F394F80EFE01E80FF11D8DE205
S113137080836E01CF0CD11CF6011082CE010ADDF0
S1131380112309F440C08EE2F6018083F394CE0168
S11313908F0D911D7C01612F70E080E090E00E9430
S11313A0AC159B01AC0160E070E080E291E40E9426
S11313B0C516A30192010E9462160E947B15212F7B
S11313C0A70141DFC701E6DC1EC0C701B6010E94C8
S11313D07B154B015C010E94AE159B01AC01C7015A
S11313E0B6010E94AA142B013C0121E0AE01C50103
S11313F0B40129DFFF24F394F80EFE01E80FF11D78
S113140080E28083B6CFCE01DF91CF911F91FF9010
S1131410EF90DF90CF90BF90AF909F908F907F9090
S11314206F905F904F900895E0917A01F0917B0165
S113143090819D7F9083672B41F0E0917A01F09138
S11314407B0190819160908307C0E0917A01F091D3
S11314507B0190819E7F9083E0917701F0917801E8
S11314609081906F9083E0917A01F0917B0190815B
S113147094609083882344F4E0917A01F0917B0195
S113148090819068908307C0E0917A01F0917B018C
S113149090819F77908386FF08C0E0917A01F09154
S11314A07B0190819064908307C0E0917A01F09170
S11314B07B0190819F7B908385FF08C0E0917A0136
S11314C0F0917B0190819062908307C0E0917A0152
S11314D0F0917B0190819F7D908384FF08C0E0910F
S11314E07A01F0917B0190819061908307C0E09133
S11314F07A01F0917B0190819F7E9083E0917A0143
S1131500F0917B0190819B7F9083E0917A01F0912F
S11315107B0190819460908383FF08C0E0917A01FD
S1131520F0917B0190819068908307C0E0917A01EB
S1131530F0917B0190819F77908382FF08C0E091B6
S11315407A01F0917B0190819064908307C0E091CF
S11315507A01F0917B0190819F7B908381FF08C089
S1131560E0917A01F0917B0190819062908307C0B1
S1131570E0917A01F0917B0190819F7D908380FFBF
S113158008C0E0917A01F0917B01808180618083C1
S113159007C0E0917A01F0917B0180818F7E808386
S11315A0E0917A01F0917B0180818B7F80830895A3
S11315B0E0917701F091780120812F702083E091F0
S11315C07A01F0917B012081206F2083E0917A01E0
S11315D0F0917B01208122602083892B41F0E091EE
S11315E07A01F0917B0180818160808307C0E09162
S11315F07A01F0917B0180818E7F8083E0917A0172
S1131600F0917B01808184608083E0917001F0918E
S113161071018081882314F080E001C080E890810A
S113162096FF02C0806401C08F7B908195FF02C049
S1131630806201C08F7D908194FF02C0806101C0EF
S11316408F7EE0917A01F0917B0190819B7F908362
S1131650E0917A01F0917B01908194609083E09114
S11316607001F09171019081992314F4886001C094
S1131670877F908196FF02C0846001C08B7F908138
S113168095FF02C0826001C08D7F908194FF02C0EB
S1131690816001C08E7FE0917A01F0917B0190819D
S11316A09B7F90830895CF93DF9380E090E080DF69
S11316B0CBE0D0E005C080E090E07ADF219711F024
S11316C08823CCF3DF91CF91089561E070E0ACDE24
S11316D0EACF0895CF9381E090E06ADFC82FE3DF7B
S11316E08C2FCF910895CF93DF93EC0188818823C9
S11316F041F0219661E070E097DED5DF8991811198
S1131700F9CFDF91CF9108950F931F93CF93DF9378
S1131710FC01D62F8081882351F08F010F5F1F4F6A
S1131720611109C01BC0CF5FDC1730F401C0C0E0F9
S1131730CD1760F013C0C1E061E070E075DEB3DF87
S1131740F80181918F018111EECFF2CFCF5F61E07B
S113175070E080E269DEA7DFCD17C0F3DF91CF919F
S11317601F910F910895CF93C82F882339F061E01A
S113177070E080E259DE97DFC150C9F7CF91089538
S1131780262F8130910571F030F08230910589F077
S11317900397B1F0089560E070E080E8820F44DEC2
S11317A082CF089560E070E080EC820F3DDE7BCF55
S11317B0089560E070E084E9820F36DE74CF089506
S11317C060E070E084ED820F2FDE6DCF089560E05D
S11317D070E081E029DE87EE97E10197F1F700C020
S11317E000000895E0917701F091780187E080830B
S11317F0E0917A01F0917B0188E080832FEF83EF01
S113180091E0215080409040E1F700C0000060E08A
S113181070E083E309DE20ED2A95F1F760E070E0E3
S113182083E302DE80ED8A95F1F760E070E08BE2FD
S1131830FBDD95EC9A95F1F7000060E070E08CE038
S1131840F3DD25EC2A95F1F7000060E070E081E01B
S1131850EBDD87EE97E10197F1F700C0000060E04F
S113186070E086E0E1DD95EC9A95F1F700000895CB
S11318701F93CF93DF93EC011FB78FB78F778FBF81
S113188070937801609377015093710140937001D4
S113189030937B0120937A01FB011082E0917A015D
S11318A0F0917B018FEF8083E0917001F0917101E1
S11318B0808188708093790195DF1FBF84E19AE06D
S11318C09983888388ED9AE09B838A8383E59BE0F0
S11318D09D838C8385E69BE09F838E838AE69BE0D1
S11318E09987888783E79BE09B878A8784E89BE0C6
S11318F09D878C8783EB9BE09F878E8787EE9BE099
S1131900998B888B80EC9BE09B8B8A8B8FE89CE087
S11319109D8B8C8BCE01DF91CF911F910895CF9336
S1131920DF93DFB78FB78F778FBFE0917001F091AE
S11319307101C081C870809179018C278C2309F0D2
S113194051DFC0937901DFBFDF91CF910895FC018E
S113195082810895E0918101F0918201208181E0EA
S113196090E00090850102C0880F991F0A94E2F765
S1131970822B808384E290E00197F1F7E0917F016C
S1131980F0918001408121E030E0C90100907E01A6
S113199002C0880F991F0A94E2F7E0918101F09147
S11319A0820190810090850102C0220F331F0A94A6
S11319B0E2F720952923208384230895603479F065
S11319C0603819F0603281F405C021E0FC01228303
S11319D02383089522E0FC0122832383089523E0D6
S11319E0FC0122832383089521E0FC0122832383C5
S11319F00895FC012081211114C0E0917F01F09130
S1131A008001208130E000907E0102C03595279549
S1131A100A94E2F720FD07C02FEFFC0120838FEF2B
S1131A20089580E0089580E008950F931F93CF9365
S1131A30DF93EC018981882399F18A89861798F4C8
S1131A400E851F85288939894A855B856C857D8546
S1131A50400F511F621F731F4E875F87688B798BFE
S1131A608F5F8A8B1CC0262F30E040E050E06E85EB
S1131A707F85888999890E944C18CA01B9010E94FE
S1131A80AE156B8B7C8B8D8B9E8B8A859B85AC85F1
S1131A90BD858E879F87A88BB98B81E08A8B19823D
S1131AA06B897C898D899E89DF91CF911F910F91DC
S1131AB00895FC0180810895479608950F931F931C
S1131AC0CF93DF93EC0109851C81059690938401E3
S1131AD0809383018881882309F444C0112329F168
S1131AE039DF8823A9F00150802F90E0FE01E80F30
S1131AF0F91F115028E0029F1019112481E090E091
S1131B0002C0880F991F1A95E2F79581892B858366
S1131B108C8181508C83803119F482E0898722C0C2
S1131B20883001F581E089871DC08B81882329F0E5
S1131B3011DF8B8181508B8315C08D819E81AF8194
S1131B40B8858A879B87AC87BD8788E18C8383E0CF
S1131B5089878A818B831D821E821F82188681E079
S1131B60898318826A857B858C859D85DF91CF91D9
S1131B701F910F910895EF920F931F93FC01DA01C7
S1131B805FB78FB78F778FBF70938701609386019C
S1131B90B0938001A0937F0130938201209381014F
S1131BA000937E01E0928501DB014C9181E090E09D
S1131BB09C0102C0220F331FEA94E2F7242B2C93DA
S1131BC0A0918101B09182012C9102C0880F991FCC
S1131BD00A95E2F7822B8C931082118281E0828332
S1131BE0838388E18483158216821782108683E0BA
S1131BF08187128613861486158616861786108AA0
S1131C00118A128A138A148A158A168AA0E0B1E00E
S1131C100D911D912D913C911397078B108F218F5E
S1131C20328F14960D911D912D913C911797038F2E
S1131C30148F258F368F18960D911D912D913C91FF
S1131C401B97078F10A321A332A31C968C911C977A
S1131C5083A31D968C911D9784A31E968C911E9729
S1131C6085A31F968C911F9786A3B0938901A09397
S1131C70880187EA9CE090A787A38AEA9CE092A760
S1131C8081A78EED9CE094A783A789EF9CE096A79B
S1131C9085A78EE59DE090AB87A785E19DE092AB9B
S1131CA081AB89E59DE094AB83AB8CE59DE096AB7D
S1131CB085AB5FBFCF011F910F91EF900895E2E6CE
S1131CC0F0E080818F6380838FEF84BB85BB0895B0
S1131CD0CF93DF93CDB7DEB7C25CD1090FB6F894CA
S1131CE0DEBF0FBECDBFEBDF0F2EF4ECCF2EF1E045
S1131CF0DF2EF02DD092D501C092D401CE01835AAB
S1131D009F4F0E94460484E1FE01E35AFF4FA5E47D
S1131D10B2E001900D928A95E1F7CE010196E6D9E1
S1131D208BA19CA1CF53DF4F99838883C15CD040A2
S1131D302D96AEADBFAD2D97C154DF4FB983A883A7
S1131D40CF5BD0402BE330E049E350E06AE370E03E
S1131D50CE018F589F4F8CDD86E1FE01EF58FF4F77
S1131D60A6EFB1E001900D928A95E1F742E062E0BE
S1131D70CE01835A9F4F0E94130280E1FE01E35A71
S1131D80FF4FAEE8B1E001900D928A95E1F742E091
S1131D9064E0CE01835B9F4F0E9457020F2EF7E051
S1131DA0EF2EF02D06E022E630E040E250E061E65E
S1131DB070E0CE0189579F4FDEDE87E3FE01E957CD
S1131DC0FF4FACE0B2E001900D928A95E1F7CE01AD
S1131DD0835A9F4F0E94BF038EE1FE01E35AFF4FD7
S1131DE0AEE9B1E001900D928A95E1F70CE012E0C2
S1131DF0D801D596ED91FC91D697C8010995FC01BF
S1131E0080819181A281B381F60180839183A28331
S1131E10B383D801D596ED91FC91D697C801099565
S1131E20FC0184819581A681B781F6018483958321
S1131E30A683B783D801D596ED91FC91D697C801B6
S1131E400995FC0180859185A285B385F60180877B
S1131E509187A287B387D801D596ED91FC91D69747
S1131E60C8010995FC018485D6011C968C93D80180
S1131E70D596ED91FC91D697C8010995FC0185850D
S1131E80D6011D968C93D801D596ED91FC91D697E9
S1131E90C8010995FC018685D6011E968C93D8014C
S1131EA0D596ED91FC91D697C8010995FC018785DB
S1131EB0D6011F968C930F2EFEE8EF2EF1E0FF2E35
S1131EC0F02DD701ED91FC9181E00995D70116968B
S1131ED0ED91FC9117978CE30995D7011C96ED9130
S1131EE0FC911D9788E090E009952F96EEADFFAD2B
S1131EF02F9781E009956596EEADFFAD659780E576
S1131F0095EF09956B96EEADFFAD6B9780E091E090
S1131F100995D8019B96ED91FC919C9760E4C801CA
S1131F200995D8019796ED91FC919897C801099568
S1131F30C254DF4F8883CE5BD040F601858590E0A4
S1131F409093440280934302E091B601F091B7016B
S1131F5040E150E060E070E08091D4019091D501BF
S1131F600995E091D401F091D5018785813009F07C
S1131F7070C0D801D596ED91FC91D697C80109950A
S1131F80E091D401F091D501408151816281738146
S1131F90FC014083518362837383D801D596ED910C
S1131FA0FC91D697C8010995E091D401F091D5012F
S1131FB04481558166817781FC014483558366831E
S1131FC07783D801D596ED91FC91D697C8010995F0
S1131FD0E091D401F091D5014085518562857385E6
S1131FE0FC014087518762877387D801D596ED91AC
S1131FF0FC91D697C8010995E091D401F091D501DF
S11320002485FC012487D801D596ED91FC91D697BF
S1132010C8010995E091D401F091D5012585FC0111
S11320202587D801D596ED91FC91D697C8010995DD
S1132030E091D401F091D5012685FC012687D801D1
S1132040D596ED91FC91D697C8010995FC011786A8
S1132050AD980F2EF6EFEF2EF1E0FF2EF02D0F2EA0
S1132060F5E4CF2EF2E0DF2EF02D0CE012E00F2E7F
S1132070F4EC2F2EF1E03F2EF02DBB24B3940F2E61
S1132080F1E3AF2EF02DD7015496ED91FC915597C5
S1132090099560B1D6011496ED91FC911597C6018E
S11320A00995D8019D96ED91FC919E97C8010995DB
S11320B0D801D196ED91FC91D29768E1C8010995B8
S11320C060938A0170938B0180938C0190938D01AE
S11320D080911101823309F42BC1833309F4EBC2DB
S11320E0813309F0FCC2D7015296ED91FC915397CC
S11320F064E070E080E090E00995D7011C96ED91D2
S1132100FC911D976CE082E191E00995D6011E9641
S1132110ED91FC911F97C601099580FF6AC06091FB
S11321208A0170918B0180918C0190918D01E3D48F
S1132130F1016083718382839383648375838683CF
S113214097836087718782879387B786E091BA0106
S1132150F091BB0140E150E060E070E08091D40177
S11321609091D5010995D801D596ED91FC91D6971A
S1132170C8010995E091D401F091D50140815181C4
S113218062817381FC014083518362837383D8012C
S1132190D596ED91FC91D697C8010995E091D401AB
S11321A0F091D5014481558166817781FC01448396
S11321B0558366837783D801D596ED91FC91D697A4
S11321C0C8010995E091D401F091D501408551856C
S11321D062857385FC014087518762877387D801C4
S11321E0D596ED91FC91D697C8010995FC01178607
S11321F0AD9840908A0150908B0160908C01709052
S11322008D01D801D596ED91FC91D697C801099519
S1132210FC016481758186819781A0D49B01AC0106
S1132220C301B20197D32B013C01D801D596ED919E
S1132230FC91D697C8010995FC01658570E080E0A2
S113224090E08CD49B01AC01C301B201ECD32B010F
S11322503C0120E030E04AE754E430D518164CF055
S113226020E030E04AE754ECC301B201D8D388231C
S11322705CF5D7015296ED91FC91539761E070E0C3
S113228082E090E00995F7018484958420E030E0B1
S11322904AE754E4C301B201C6D323E046ED51E05A
S11322A0C154DF4FE881F981CF5BD04009956DE0DF
S11322B0F4010995D7011C96ED91FC911D9764E0FA
S11322C08FE191E0099525C0D7015296ED91FC91DB
S11322D0539761E070E082E090E00995F70184840F
S11322E0958420E046ED51E0C301B201C154DF4FB3
S11322F0E881F981CF5BD04009956DE0F40109953F
S1132300D7011C96ED91FC911D9764E082E291E067
S1132310099580914801813009F0B5CEB2E3B093BC
S11323201101D7015096ED91FC9151970995ABCECF
S1132330D7015296ED91FC91539761E070E080E0F3
S113234090E00995D7011C96ED91FC911D9761E1F0
S113235087E291E00995C254DF4FB881CE5BD0404B
S1132360B33009F4EEC030F4B13099F0B23009F46E
S11323707CC052C1C254DF4FE881CE5BD040E5310E
S113238009F488C0EF3109F4F1C0EB3009F044C11D
S113239015C0D801D596ED91FC91D697C801099541
S11323A0FC01868590E09093440280934302FBE015
S11323B0C254DF4FF883CE5BD0402EC1D701529672
S11323C0ED91FC91539769E070E082E090E009950B
S11323D0D6011E96ED91FC911F97C6010995883090
S11323E0A1F4809143029091440201968F3F91059C
S11323F009F028F4909344028093430206C0EFEF5F
S1132400F0E0F0934402E0934302D6011E96ED916E
S1132410FC911F97C6010995803189F4809143028C
S113242090914402019729F09093440280934302CF
S113243006C081E090E0909344028093430280912F
S1132440430290914402F1018687D7011C968D9036
S11324509C901D97CF53DF4FE881F981C15CD04038
S1132460099566E0F4010995D7C0D801D596ED9198
S1132470FC91D697C8010995FC01848590E090935E
S1132480440280934302F5E1C254DF4FF883CE5BEC
S1132490D040C2C0D7015296ED91FC91539769E0A8
S11324A070E082E090E00995D6011E96ED91FC91D2
S11324B01F97C60109958830A1F480914302909139
S11324C0440201968F3F910509F028F49093440249
S11324D08093430206C0EFEFF0E0F0934402E093F0
S11324E04302D6011E96ED91FC911F97C6010995F2
S11324F0803189F48091430290914402019729F03C
S1132500909344028093430206C081E090E090934C
S11325104402809343028091430290914402F1016A
S11325208487D7011C968D909C901D97CF53DF4FC5
S1132530E881F981C15CD040099566E0F401099510
S11325406BC0D801D596ED91FC91D697C801099539
S1132550FC01858590E09093440280934302FFE15F
S1132560C254DF4FF883CE5BD04056C0D701529699
S1132570ED91FC91539769E070E082E090E0099559
S1132580D6011E96ED91FC911F97C60109958830DE
S1132590A1F4809143029091440201968F3F9105EA
S11325A009F028F4909344028093430206C0EFEFAD
S11325B0F0E0F0934402E0934302D6011E96ED91BD
S11325C0FC911F97C6010995803189F480914302DB
S11325D090914402019729F090934402809343021E
S11325E006C081E090E0909344028093430280917E
S11325F0430290914402F1018587D7011C968D9086
S11326009C901D97CF53DF4FE881F981C15CD04086
S1132610099566E0F401099580914801823009F03A
S113262032CDD1011F96BC92E091BA01F091BB0169
S113263040E150E060E070E08091D4019091D501D8
S11326400995D801D596ED91FC91D697C8010995C5
S1132650E3E4F2E02081DC011C962C93D801D596AA
S1132660ED91FC91D697C8010995E3E4F2E020814D
S1132670DC011D962C93D801D596ED91FC91D6974B
S1132680C8010995E3E4F2E02081DC011E962C9355
S1132690D801D596ED91FC91D697C8010995FC0116
S11326A01786AD98A0921101D7015096ED91FC9137
S11326B051970995E8CCD7015296ED91FC91539727
S11326C060E070E080E090E00995D7011C96ED9100
S11326D0FC911D9763E189E391E00995D4CCA09224
S11326E01101D1CC1F920F920FB60F9211240BB689
S11326F00F922F933F934F935F936F937F938F9397
S11327009F93AF93BF93CF93EF93FF93CFB78FB7BD
S11327108F778FBFE0913B02F0913C028CE092E016
S11327200995CFBFFF91EF91CF91BF91AF919F9149
S11327308F917F916F915F914F913F912F910F9066
S11327400BBE0F900FBE0F901F9018951F920F9203
S11327500FB60F9211240BB60F922F933F934F9302
S11327605F936F937F938F939F93AF93BF93CF9315
S1132770DF93EF93FF93E0914F02F091500285E4D1
S113278092E009958F73883041F480914A018F5FFC
S113279080934A01863040F496C080914A01863085
S11327A018F410924A018FC086E080934A0195B3D1
S11327B080E4892785BB80911001815080931001AA
S11327C0811181C0E091BA01F091BB0140E150E078
S11327D060E070E080918801909189010995CCE0D6
S11327E0D2E0EDA9FEA9CE010995E0918801F0910E
S11327F089014081518162817381FC01408351834D
S113280062837383EDA9FEA9CE010995E091880145
S1132810F09189014481558166817781FC0144836B
S1132820558366837783EDA9FEA9CE010995E091CE
S11328308801F09189014085518562857385FC0189
S11328404087518762877387EDA9FEA9CE01099558
S1132850E0918801F09189012485422F50E0509342
S1132860440240934302FC012487EDA9FEA9CE0152
S11328700995E0918801F09189012585422F50E066
S11328805093440240934302FC012587EDA9FEA91D
S1132890CE010995E0918801F09189012685FC011A
S11328A02687EDA9FEA9CE010995E0918801F09152
S11328B089012785FC012787AD9AAE9A10924A01B7
S11328C088E080931001E0914F02F091500285E47A
S11328D092E009958F73803141F4809149018F5FB3
S11328E080934901863008F107C080914901863000
S11328F018F41092490119C086E08093490181E0DF
S11329008093480185B3805885BBE0914F02F091D4
S1132910500285E492E009958F73803231F482E0AD
S113292080934801AF9A10924901FF91EF91DF9192
S1132930CF91BF91AF919F918F917F916F915F9153
S11329404F913F912F910F900BBE0F900FBE0F90A0
S11329501F9018955058BB27AA270ED075C166D171
S113296030F06BD120F031F49F3F11F41EF45BC1C1
S11329700EF4E095E7FB51C1E92F77D180F3BA1744
S1132980620773078407950718F071F49EF58FC1E9
S11329900EF4E0950B2EBA2FA02D0B01B901900176
S11329A00C01CA01A0011124FF27591B99F0593FBA
S11329B050F4503E68F11A16F040A22F232F342F02
S11329C04427585FF3CF469537952795A795F04050
S11329D05395C9F77EF41F16BA0B620B730B840B65
S11329E0BAF09150A1F0FF0FBB1F661F771F881F1D
S11329F0C2F70EC0BA0F621F731F841F48F4879575
S1132A0077956795B795F7959E3F08F0B3CF939563
S1132A10880F08F09927EE0F979587950895D9D0D8
S1132A2008F481E008950CD00FC107D140F0FED026
S1132A3030F021F45F3F19F0F0C0511139C1F3C0F7
S1132A4014D198F39923C9F35523B1F3951B550B6E
S1132A50BB27AA2762177307840738F09F5F5F4F6D
S1132A60220F331F441FAA1FA9F333D00E2E3AF0AE
S1132A70E0E830D091505040E695001CCAF729D0C8
S1132A80FE2F27D0660F771F881FBB1F2617370717
S1132A904807AB07B0E809F0BB0B802DBF01FF2747
S1132AA093585F4F2AF09E3F510568F0B6C000C1AD
S1132AB05F3FECF3983EDCF3869577956795B79581
S1132AC0F7959F5FC9F7880F911D9695879597F99C
S1132AD00895E1E0660F771F881FBB1F6217730715
S1132AE08407BA0720F0621B730B840BBA0BEE1F2A
S1132AF088F7E095089504D06894B111D9C0089579
S1132B00BCD088F09F5790F0B92F9927B751A0F007
S1132B10D1F0660F771F881F991F1AF0BA95C9F76D
S1132B2012C0B13081F0C3D0B1E00895C0C0672FA6
S1132B30782F8827B85F39F0B93FCCF3869577951D
S1132B406795B395D9F73EF4909580957095619506
S1132B507F4F8F4F9F4F0895E89409C097FB3EF431
S1132B6090958095709561957F4F8F4F9F4F9923D6
S1132B70A9F0F92F96E9BB279395F6958795779554
S1132B806795B795F111F8CFFAF4BB0F11F460FF14
S1132B901BC06F5F7F4F8F4F9F4F16C0882311F06C
S1132BA096E911C0772321F09EE8872F762F05C080
S1132BB0662371F096E8862F70E060E02AF09A951B
S1132BC0660F771F881FDAF7880F9695879597F910
S1132BD00895990F0008550FAA0BE0E8FEEF1616AA
S1132BE01706E807F907C0F012161306E407F507FD
S1132BF098F0621B730B840B950B39F40A2661F071
S1132C00232B242B252B21F408950A2609F4A14013
S1132C10A6958FEF811D811D089597F99F6780E820
S1132C2070E060E008959FEF80EC089500240A941A
S1132C301616170618060906089500240A94121693
S1132C401306140605060895092E0394000C11F4C6
S1132C50882352F0BB0F40F4BF2B11F460FF04C073
S1132C606F5F7F4F8F4F9F4F089557FD9058440FCC
S1132C70551F59F05F3F71F04795880F97FB991FD7
S1132C8061F09F3F79F08795089512161306140694
S1132C90551FF2CF4695F1DF08C016161706180621
S1132CA0991FF1CF86957105610508940895E894FC
S1132CB0BB2766277727CB0197F908958ADF08F4A5
S1132CC08FEF08950BD0C0CFB1DF28F0B6DF18F036
S1132CD0952309F0A2CFA7CF1124EACFC6DFA0F332
S1132CE0959FD1F3950F50E0551F629FF001729F9D
S1132CF0BB27F00DB11D639FAA27F00DB11DAA1FBC
S1132D00649F6627B00DA11D661F829F2227B00D08
S1132D10A11D621F739FB00DA11D621F839FA00D93
S1132D20611D221F749F3327A00D611D231F849FE3
S1132D30600D211D822F762F6A2F11249F5750403A
S1132D408AF0E1F088234AF0EE0FFF1FBB1F661FD5
S1132D50771F881F91505040A9F79E3F510570F08E
S1132D605CCFA6CF5F3FECF3983EDCF38695779576
S1132D706795B795F795E7959F5FC1F7FE2B880F89
S1132D80911D9695879597F90895FA01EE0FFF1F07
S1132D9030962105310599F16115710561F480388A
S1132DA0BFE39B0749F168949038810561F080384E
S1132DB0BFEF9B0741F0992342F5FF3FE105310541
S1132DC0210511F1E8940894E795D901AA2329F47F
S1132DD0AB2FBE2FF85FD0F310C0FF5F70F4A69541
S1132DE0E0F7F73950F019F0FF3A38F49F779F93E2
S1132DF00CD00F9007FC905808953EF014CF60E07B
S1132E0070E080E89FE308954FE79F775F934F93C7
S1132E103F932F939ED02F913F914F915F9152DF1B
S1132E2005C019F40EF0F9CE42CFFDCE26DFC8F36B
S1132E309638C0F707F80F92E8942BE33AEA48EB88
S1132E405FE74EDF0F920F920F924DB75EB70F926E
S1132E50C0D0E2ECF0E016D04F915F91EF91FF917A
S1132E60E595EE1FFF1F49F0FE57E0684427EE0F7B
S1132E70441FFA95E1F74195550B32D00F9007FEA8
S1132E8026C00895DF93CF931F930F93FF92EF9281
S1132E90DF927B018C01689405C0DA2EEF011EDFFE
S1132EA0FE01E894A5912591359145915591AEF394
S1132EB0EF0162DDFE019701A801DA9479F7DF9052
S1132EC0EF90FF900F911F91CF91DF9108959B0197
S1132ED0AC0160E070E080E89FE3A5CD9ECEACC07D
S1132EE0CCDEE8F39923D9F3940F511DBBF3915031
S1132EF0504094F059F0882332F0660F771F881FF2
S1132F0091505040C1F79E3F510544F7880F911DE1
S1132F109695879597F908955F3FACF0983E9CF09D
S1132F20BB27869577956795B79508F4B160939517
S1132F30C1F7BB0F58F711F460FFE8CF6F5F7F4F05
S1132F408F4F9F4FE3CFB4CE0EF076C06CCE689413
S1132F5064CE93DEC8F39923D1F3C6F3DF93CF9302
S1132F601F930F93FF92C92FDD2788232AF02197FF
S1132F70660F771F881FDAF720E030E040E85FEB48
S1132F809FE3883920F0803E30F021968F77E3DC90
S1132F90EAEEF0E003C0DFDCE7E1F1E073DF8B0190
S1132FA0BE01EC01FB2E6F5771097595771F880BD5
S1132FB0990BD4DD28E132E741E35FE38FDEAF2DE7
S1132FC09801AE01FF900F911F91CF91DF91D4DC56
S1132FD03BCEFA01DC01AA0FBB1F9B01AC01BF571A
S1132FE028F422273327442750781FC0B75188F488
S1132FF0AB2F0024469537952795011CA395D2F352
S1133000002069F0220F331F441FB395DAF30DD06B
S1133010A1CC61307105A0E88A07B94630F49B0160
S1133020AC016627772788279078309621F0208393
S113303031834283538308959F3F31F0915020F4AC
S1133040879577956795B795880F911D9695879580
S113305097F90895DB018F939F9352D0BF91AF915D
S1133060A29F800D911DA39F900DB29F900D1124DE
S1133070089597FB072E16F4009406D077FD08D028
S113308049D007FC05D03EF4909581959F4F089553
S1133090709561957F4F0895052E97FB16F4009463
S11330A00FD057FD05D04AD007FC02D046F408C023
S11330B050954095309521953F4F4F4F5F4F089560
S11330C090958095709561957F4F8F4F9F4F089590
S11330D0EE0FFF1F0024001C0BBE0790F691E02D9D
S11330E00994A29FB001B39FC001A39F700D811DDD
S11330F01124911DB29F700D811D1124911D0895FD
S1133100F0DFA59F900DB49F900DA49F800D911D9D
S113311011240895AA1BBB1B51E107C0AA1FBB1FA2
S1133120A617B70710F0A61BB70B881F991F5A954F
S1133130A9F780959095BC01CD010895A1E21A2EBE
S1133140AA1BBB1BFD010DC0AA1FBB1FEE1FFF1F47
S1133150A217B307E407F50720F0A21BB30BE40B97
S1133160F50B661F771F881F991F1A9469F76095DE
S11331707095809590959B01AC01BD01CF01089598
S1133180DC01CB01FC01E199FECF06C0FFBBEEBB25
S1133190E09A31960DB20D9241505040B8F708951F
S11331A0E199FECF9FBB8EBBE09A99278DB308951A
S11331B0A8E1B0E042E050E0E5CFDC01A40FB51F88
S11331C04150504040F0CB01840F951F2E9105D003
S11331D041505040D8F70895262FE199FECF9FBB68
S11331E08EBBE09A01970DB2021631F02DBB0FB6DB
S11331F0F894E29AE19A0FBE08950396272FEDDF23
S1133200EBDF252FEADF242FE8CF0196272FE5DF18
S1133210E3CFDC01CB0102C02D9105D041505040D9
S1133220D8F70895262FE199FECF9FBB8EBB2DBB07
S11332300FB6F894E29AE19A0FBE01960895242FEE
S1133240F2DF252FF0DF00C0EDDF272FECCFF8945D
S1053250FFCFAA
S1133252C08F0000FC1B0100003F0200172E5C001F
S11332620831576569676874205363616C65004B64
S113327267006772616D00534554555020474149B8
S11332824E20464143544F52004E6F74206265698A
S10B32926E672075736564008A
S9030000FC
