S011000041746D6567613132382E7372656329
S1130000A1C00000BEC00000BCC00000BAC0000017
S1130010B8C00000B6C00000B4C00000B2C0000008
S1130020B0C00000AEC0000028C50000F4C4000049
S1130030FCC4000004C5000016C500000C94201682
S1130040E0C400009EC0000054C5000088C5000044
S113005098C0000014C2000094C0000092C00000C8
S1130060F8C4000014C500001CC5000024C500002D
S11300702CC5000034C500009BC50000D2C500009B
S113008080C000007EC000007CC000002204260462
S11300902A042E0432043904400447044B04520455
S11300A05904600464046B0472048E04920496047C
S11300B09A04A004A404A804AC04B504B904BD04BF
S11300C0C60407634236B79BD8A71A39685618AED8
S11300D0BAAB558C1D3CB7CC5763BD6DEDFD753E79
S11300E0F6177231BF000000803F08000000BE9286
S11300F02449123EABAAAA2ABECDCCCC4C3E000069
S11301000080BEABAAAAAA3E00000000BF00000007
S1130110803F0000000000084178D3BB4387D1131F
S11301203D190E3CC3BD4282AD2B3E68EC8276BEC7
S1130130D98FE1A93E4C80EFFFBE01C4FF7F3F0091
S11301400000000011241FBECFEFD0E1DEBFCDBF01
S113015011E0A0E0B1E0EEEDF5E300E00BBF02C07A
S113016007900D92A435B107D9F724E0A4E5B1E0D6
S113017001C01D92AE34B207E1F70E940B120C9439
S1130180ED1A3ECF882389F0E0918301F091840138
S1130190208181E090E00090850102C0880F991FC2
S11301A00A94E2F7822B808311C0E0918301F091DD
S11301B08401208181E090E00090850102C0880FD5
S11301C0991F0A94E2F7809582238083E09183014A
S11301D0F0918401408181E090E09C0100908701CE
S11301E002C0220F331F0A94E2F7242B2083E091EC
S11301F08301F091840120810090870102C0880F5F
S1130200991F0A94E2F78095822380830895E091F0
S11302108301F0918401408181E090E09C01009091
S1130220860102C0220F331F0A94E2F7242B208395
S1130230E0918301F091840120810090860102C045
S1130240880F991F0A94E2F780958223808308958A
S1130250FF920F931F93CF93DF93F82EC0E0D0E06B
S113026001E010E0C8010C2E02C0880F991F0A9407
S1130270E2F78F2187DF2196C830D10599F7C7DFD0
S1130280DF91CF911F910F91FF9008950F93CF931A
S1130290DF9300D000D000D0CDB7DEB75FB73FB753
S11302A03F773FBF909382018093810170938401D3
S11302B06093830140938501209387010093860115
S11302C0FC01308161E070E0DB0102C0AA0FBB1FBA
S11302D02A95E2F7FB0102C0EE0FFF1F0A95E2F731
S11302E0EA2B02C0660F771F4A95E2F76E2B232F85
S11302F0262BFC012083E0918301F091840180810D
S11303006095682360835FBF22EC30E03A832983E1
S113031048E251E05C834B8367E071E07E836D8348
S11303203A815C817E8180E090E026960FB6F89455
S1130330DEBF0FBECDBFDF91CF910F910895369BE5
S1130340369AFC01EE0FFF1FE359FE4F8081918125
S113035008950F931F93CF93DF93CDB7DEB79F819B
S1130360688549855A851FB78FB78F778FBF50939C
S11303705C0140935B0110925A0110925901109252
S1130380540187B18F7387B9913019F0933021F0FC
S113039008C03E9A01E006C087B1806C87B903E0CB
S11303A001C000E03D98141615068CF4DE011B967E
S11303B080E090E02D913D91FC01EE0FFF1FE35A88
S11303C0FE4F3183208301964817590799F787B167
S11303D0807E87B9E0915901F0915A01EE0FFF1F19
S11303E0E35AFE4F8081918127B18F719927822B27
S11303F087B9379A369A3598339A86B1887F86B901
S11304006031D1F038F4643079F0683081F06230D2
S113041029F507C06034C1F06038D9F06032F1F4D6
S11304200EC0309A22E01EC0319A24E01BC086B16F
S1130430836086B928E016C0329A20E113C086B1E1
S1130440856086B920E20EC086B1866086B920E454
S113045009C086B1876086B920E804C086B1876088
S113046086B920E81FBF8FB780688FBF602F722FB7
S11304708FE991E0DF91CF911F910F9108951F9221
S11304800F920FB60F9211240BB60F922F933F9336
S11304904F935F938F939F93EF93FF932FB78FB7F0
S11304A08F778FBF84B190E090935601809355016C
S11304B035B18091550190915601932B909356013B
S11304C080935501809154018430A0F480915401AB
S11304D08F5F809354014091550150915601809152
S11304E0570190915801840F951F90935801809360
S11304F0570143C0E0915901F0915A01809157018D
S1130500909158019595879595958795EE0FFF1FC6
S1130510E359FE4F91838083109258011092570142
S1130520109254014091590150915A0180915B01FC
S113053090915C014817590754F4809159019091A6
S11305405A01019690935A018093590104C0109264
S11305505A011092590187B1807E87B9E0915901FF
S1130560F0915A01EE0FFF1FE35AFE4F80819181F3
S113057037B18F719927832B87B92FBFFF91EF91E3
S11305809F918F915F914F913F912F910F900BBE4F
S11305900F900FBE0F901F90189520918B01211181
S11305A040C02FEF21BF23B7287F23BF803491059C
S11305B011F148F488309105B1F080329105B9F019
S11305C0019749F50CC0811521E09207E1F08115EE
S11305D024E09207E1F080389105E9F410C083B774
S11305E0816083BF1BC083B7826083BF17C083B79A
S11305F0836083BF13C083B7846083BF0FC083B796
S1130600856083BF0BC083B7866083BF07C083B791
S1130610876083BF03C083B7876083BF81E0809313
S11306208B01089593B79F7C93BF823041F0833050
S113063051F0813059F483B7806183BF089583B743
S1130640806283BF089583B7806383BF089581BFA9
S1130650089583B7887F83BF12BE10928B010895DB
S113066020918801211142C02FEF3FEF3BBD2ABDED
S11306702EB5287F2EBD88309105D1F048F4833003
S1130680910531F18530910539F1019749F50CC097
S1130690811521E09207A1F0811524E09207A1F0D1
S11306A080349105E9F408C08EB581608EBD1BC00D
S11306B08EB582608EBD17C08EB583608EBD13C0AB
S11306C08EB584608EBD0FC08EB585608EBD0BC0A7
S11306D08EB586608EBD07C08EB587608EBD03C0A3
S11306E08EB585608EBD81E08093880108959FB5A5
S11306F09F739FBD823041F0833051F0813059F4B3
S11307008FB580648FBD08958FB580688FBD0895BF
S11307108FB5806C8FBD08959FB59F7C9FBD82303F
S113072041F0833051F0813059F48FB580618FBD31
S113073008958FB580628FBD08958FB580638FBD96
S113074008959FB5937F9FBD823041F0833051F06F
S1130750813059F48FB584608FBD08958FB588605A
S11307608FBD08958FB58C608FBD08959BBD8ABDE4
S1130770089599BD88BD0895909379008093780079
S113078008958EB5887F8EBD1DBC1CBC1092880157
S1130790089510928B0123B7277B23BF623041F069
S11307A0633051F0613059F423B7206423BF07C08C
S11307B023B7286023BF03C023B7286423BF27B708
S11307C02E7F27BF27B72D7F27BF423041F043300C
S11307D051F0413071F427B7216027BF0AC027B711
S11307E0226027BF06C027B7216027BF27B7226032
S11307F027BF22E133E0FC013183208327E233E089
S1130800378326832DEC32E03587248729E233E0D1
S11308103787268708950F931F93DC011092880170
S11308208FB58C7F8FBD8EB5877E8EBD062F10E071
S1130830F8013197EF30F10508F05AC0EA5BFF4F39
S11308400C94AC1A8FB581608FBD52C08FB5826095
S11308508FBD4EC08FB583608FBD4AC08EB5886092
S11308608EBD46C08FB581608FBD8EB588608EBD4C
S11308703FC08FB582608FBD8EB588608EBD38C095
S11308808FB583608FBD8EB588608EBD31C08EB547
S113089080618EBD2DC08FB581608FBD8EB58061A6
S11308A08EBD26C08FB582608FBD8EB580618EBD32
S11308B01FC08FB583608FBD8EB580618EBD18C09B
S11308C08EB588618EBD14C08FB581608FBD8EB525
S11308D088618EBD0DC08FB582608FBD8EB5886175
S11308E08EBD06C08FB583608FBD8EB588618EBD09
S11308F08FB583708FBD87B7837C87BFEDE7F0E04A
S113090080818E7F808350E0FA013197EC30F105CD
S113091008F044C0EB5AFF4F0C94AC1A87B78460BC
S113092087BF3CC087B7806187BF38C087B78860FE
S113093087BF34C0EDE7F0E08081816080832EC002
S113094087B7806287BF2AC087B7846187BF26C004
S113095087B78C6087BF22C087B7846087BFEDE705
S1130960F0E080818160808319C087B7846287BF8B
S113097015C087B78C6187BF11C087B78C6187BFEB
S1130980EDE7F0E080818160808308C087B78861EB
S113099087BFEDE7F0E080818160808387E793E0A3
S11309A011969C938E938CE893E013969C938E936C
S11309B0129781EA93E015969C938E93149786EB95
S11309C093E017969C938E93169789EB93E0199670
S11309D09C938E9318978CEB93E01B969C938E9329
S11309E01A9780E393E01D969C938E931C9781EC59
S11309F093E01F969C938E931E97CD011F910F91A8
S1130A0008951F920F920FB60F9211240F900FBEEC
S1130A100F901F9018951F920F920FB60F921124EA
S1130A200F900FBE0F901F9018951F920F920FB644
S1130A300F9211240F900FBE0F901F9018951F92C4
S1130A400F920FB60F9211240F900FBE0F901F90AC
S1130A5018951F920F920FB60F9211240F900FBE8C
S1130A600F901F9018951F920F920FB60F9211249A
S1130A700F900FBE0F901F9018951F920F920FB6F4
S1130A800F9211240F900FBE0F901F9018951F9274
S1130A900F920FB60F9211240F900FBE0F901F905C
S1130AA018951F920F920FB60F9211240F900FBE3C
S1130AB00F901F9018951F920F920FB60F9211244A
S1130AC00F900FBE0F901F9018951F920F920FB6A4
S1130AD00F9211240F900FBE0F901F9018951F9224
S1130AE00F920FB60F9211240F900FBE0F901F900C
S1130AF018951F920F920FB60F9211240BB60F92F6
S1130B008F939F93EF93FF938BB19AB188718093E6
S1130B10CD01E091D602EF5FEF739091D702E91314
S1130B2004C082E08093CD010FC09CB1E093D60253
S1130B30882331F0F0E0E752FD4F88E5808304C05C
S1130B40F0E0E752FD4F9083FF91EF919F918F91D9
S1130B500F900BBE0F900FBE0F901F9018951F9211
S1130B600F920FB60F9211240BB60F928F939F938F
S1130B70EF93FF93E0911102F0E0EA56FD4F80817C
S1130B808CB91082809111028F5F8F738093110250
S1130B909091CC01891301C05598FF91EF919F91D9
S1130BA08F910F900BBE0F900FBE0F901F90189552
S1130BB01F920F920FB60F9211240BB60F928F93C0
S1130BC09F93EF93FF9380919B0090919A0088717B
S1130BD080931302E0911202EF5FEF739091D802B9
S1130BE0E91304C082E08093130210C090919C002A
S1130BF0E0931202882331F0F0E0E153FE4F88E5E0
S1130C00808304C0F0E0E153FE4F9083FF91EF91A5
S1130C109F918F910F900BBE0F900FBE0F901F905E
S1130C2018951F920F920FB60F9211240BB60F92C4
S1130C308F939F93EF93FF93E091CE01F0E0EA5AF4
S1130C40FD4F808180939C0010828091CE018F5F44
S1130C508F738093CE0190911402891305C0EAE941
S1130C60F0E080818F7D8083FF91EF919F918F9140
S1130C700F900BBE0F900FBE0F901F901895682316
S1130C80442321F0861721F080E00895611180E06B
S1130C900895862B08958623089586230895862B28
S1130CA08095089586278623089560958623089560
S1130CB086270895CF92DF92EF92FF920F931F93AE
S1130CC0FC010081118122813381FB01C080D1802C
S1130CD0E280F380FC01C082D182E282F382FB01D4
S1130CE000831183228333831F910F91FF90EF9030
S1130CF0DF90CF900895FB012081FC012083222303
S1130D0039F0DB01119631969D9191939111FCCFAD
S1130D100895CF93DF93EC019881992399F0FE0114
S1130D20319620E030E0492F50E04617570731F064
S1130D30DE01A20FB31F9C932F5F3F4F919191113E
S1130D40F2CF02C020E030E0FE01E20FF31F108278
S1130D50DF91CF9108952F923F924F925F926F92BD
S1130D607F928F929F92AF92BF92CF92DF92EF9237
S1130D70FF920F931F93CF93DF9300D000D0CDB792
S1130D80DEB72C011B014B0177231CF42FEF821AD1
S1130D90920A95948794181419040CF451C06AC0EB
S1130DA09601DD209CF1F50140815181F4016081BF
S1130DB071816417750754F58C010A0D1B1DD4014C
S1130DC0BC82AB82BA82A982EB81FC81718360838D
S1130DD011965C934E932E193F09C2F0F80140819D
S1130DE05181E981FA8160817181080F191FE80F2F
S1130DF0F91FFA83E983EB81FC81E80FF91FFC8377
S1130E00EB83A80FB91F64177507F4F2FFEFCF1A2D
S1130E10DF0A22E0A20EB11CE2E08E0E911CC61481
S1130E20D70409F0BDCF4701FF201CF4FFEF8F1A50
S1130E309F0A9594879418141904E4F4740101C06A
S1130E407401821493047CF76401CE18DF08560100
S1130E50AA0CBB1CA40CB51C880C991C840C951CF6
S1130E6031016E187F08C701880F991F91958195EC
S1130E70910996CF0F900F900F900F90DF91CF9123
S1130E801F910F91FF90EF90DF90CF90BF90AF90A4
S1130E909F908F907F906F905F904F903F902F9096
S1130EA00895861797070CF4CB0108959B01672BCF
S1130EB011F408959A01B9010E945B1AAC01822FC2
S1130EC0932F41155105B1F70895FC01908180EDF0
S1130ED0890F8A30D0F4319620E030E0A901440F24
S1130EE0551F220F331F220F331F220F331F420FB0
S1130EF0531F292F30E020533109240F351F9191BE
S1130F0080ED890F8A3050F302C020E030E0C9013F
S1130F10089586230895009739F020E030E02F5F8C
S1130F203F4F82179307D9F7089587FF08C091951B
S1130F3081959109992791958195910908958F77C4
S1130F409927089591FF08C091958195910993700F
S1130F50919581959109089591700895615021E0CA
S1130F6030E002C0220F331F6A95E2F7A901415015
S1130F705109B90168237923672B29F08423952328
S1130F80821B930B08958423952308959DEC899FD8
S1130F90912D1124969596959695392F330F232FDD
S1130FA0220F220F230F821B20E1929F800D112418
S1130FB00895982F92959F70990F292F220F220F31
S1130FC0920F8F70890F0895FC01DB01A75EBC4F5F
S1130FD01C921616170614F5908191110CC017C0B7
S1130FE0919191110DC015C081932F5F3F4F26172A
S1130FF03707D4F313C0A9E1B3E0319620E030E021
S11310009D932F5F3F4F6217730751F707C020E08E
S113101030E0F901E75EFC4F80E2E6CF89E193E03E
S113102008954F925F926F927F92AF92BF92CF9248
S1131030DF92EF92FF920F931F93CF93DF93CDB77D
S1131040DEB729013A019B01AC012419350946098F
S1131050570989899A89AB89BC89BC01CD016A1970
S11310607B098C099D090E94381AA801970124194B
S11310703509460957090E94901ACA01B9016A0D37
S11310807B1D8C1D9D1DDF91CF911F910F91FF90B2
S1131090EF90DF90CF90BF90AF907F906F905F9074
S11310A04F90089570E06115710599F041E050E0AA
S11310B021E030E090E0FA01E89FA001E99F500DA3
S11310C0F89F500D11242F5F3F4F6217730798F755
S11310D002C041E050E0CA010895FC0120812223AE
S11310E041F0319680E090E0019621912111FCCFEE
S11310F0089580E090E00895CF93DF93EC01EDDF55
S11311009C012150310962F0FE01E80FF91F929110
S1131110903219F09950923018F421503109B8F7EF
S1131120C20FD31F1982C901DF91CF910895CF93C4
S1131130DF93EC01D2DF9C01215031091216130612
S113114084F4DE01A80FB91FFE0180E090E0408125
S11311505E9151934C930196215031098217930764
S1131160B4F3DF91CF9108958F929F92AF92BF9283
S1131170CF92DF92EF92FF920F931F93CF93DF935F
S11311806B017C01DC01CB01FF203CF4882799270B
S1131190DC018C199D09AE09BF09BC01CD0110E029
S11311A00F2EFAE08F2E912CA12CB12CF02D01C022
S11311B0102F01E0010FC12FD0E0C75EDC4FA50165
S11311C094010E94901A605D6883622F732F842FAC
S11311D0952F161617061806190654F3FF2044F423
S11311E0E02FF0E0E75EFC4F8DE2808302E0010F28
S11311F0E02FF0E0E75EFC4F108289E193E097DF97
S113120089E193E0DF91CF911F910F91FF90EF90CF
S1131210DF90CF90BF90AF909F908F9008950F93E1
S11312201F93CF93DF93EC01992324F48827992704
S11312308C1B9D0B20E00AE010E001C0232F31E05D
S1131240320FE22FF0E0E75EFC4FB8010E945B1A18
S1131250805D8083862F972F181619067CF3DD2373
S113126044F4E32FF0E0E75EFC4F8DE2808332E04C
S1131270320FE32FF0E0E75EFC4F108289E193E048
S113128056DF89E193E0DF91CF911F910F9108958B
S1131290CF93AC01E0E0C1E0CE0FF0E0E75EFC4F9D
S11312A09A01ADECBCEC0E94B51A9695879596957B
S11312B08795969587959C01220F331F880F991F58
S11312C0880F991F880F991F820F931F9A01281B5B
S11312D0390BC901805D80839A010E94B51AAC0163
S11312E0569547955695479556954795EC2F411534
S11312F0510589F6EC2FF0E0E75EFC4F108289E19E
S113130093E015DF89E193E0CF910895982F9295AA
S11313109F70990F292F220F220F920F8F70890F20
S11313200895AC019C01ADECBCEC0E94B51A9695F5
S113133087959695879596958795BC01660F771F37
S11313409C01220F331F220F331F220F331F260F3E
S1131350371F421B530B342F20E1829F300D112481
S1131360832F0895CF92DF92EF92FF92CF93DF9372
S1131370CDB7DEB728970FB6F894DEBF0FBECDBF4A
S11313806B017C0169837A838B839C832D833E83E9
S11313904F835887C216D306E406F50634F4BE011B
S11313A06B5F7F4FCE01019685DC8D819E81AF817D
S11313B0B885892B8A2B8B2B71F469817A818B8177
S11313C09C8120E030E0A9010E94901A611571050A
S11313D08105910529F46D817E818F81988505C0F1
S11313E06D837E838F839887F6CF28960FB6F89403
S11313F0DEBF0FBECDBFDF91CF91FF90EF90DF90A6
S1131400CF90089590E002C0959587956A95E2F78C
S113141081700895E9E1F3E090E020E850E341E3CE
S1131420382F322311F0408301C0508326959F5FEB
S113143031969830A9F71092210389E193E0089539
S1131440A42FB0E0109761F021E030E0E1E0F0E09B
S1131450EE0FFF1F2F5F3F4FA217B307C8F702C05D
S1131460E1E0F0E031976E237F238E239F238627CC
S113147097276823792302C0660F771F4A95E2F7FE
S1131480862B972B0895FC019FB78FB78F778FBF5B
S11314909FBF82E598E0918380838DE698E09383F3
S11314A0828387E998E09583848380E29AE0978336
S11314B086838FE396E0918780878DE496E0938717
S11314C082878FE496E09587848782E596E0978704
S11314D0868785E596E0918B808B88E596E0938BF3
S11314E0828B89E496E0958B848B8BE496E0978BD2
S11314F0868B8AE596E0918F808F8BE796E0938FB9
S1131500828F89E896E0958F848F8BEA96E0978F97
S1131510868F8FE099E091A380A388E499E093A358
S113152082A384EB98E095A384A38CE798E097A327
S113153086A381E597E091A780A786E597E093A726
S113154082A785E697E095A784A789E897E097A7FF
S113155086A78BE897E091AB80AB85E997E093ABE6
S113156082AB82EA97E095AB84AB8EEA97E097ABC7
S113157086AB86EC97E091AF80AF89ED97E093AFAF
S113158082AF84EE97E095AF84AF81E198E097AFA6
S113159086AFDF01A05CBF4F86E899E011969C936B
S11315A08E93129681E999E011969C938E931296EC
S11315B082EB99E011969C938E93129682E09AE0C6
S11315C011969C938E9312968AE09AE011969C93BE
S11315D08E93129688E49BE08D939C93CF0108959B
S11315E09B01215031091216130684F4FC01E60F05
S11315F0F71FDC0180E090E04C9152915D934083B1
S113160001962150310982179307B4F30895CF92BC
S1131610DF92EF92FF920F931F93CF93DF936B01AF
S11316208A01009799F0EB01E0E0F0E00F2EFAE078
S1131630EF2EF12CF02D3196B7010E945B1A805DDC
S11316408993862F972F0097B1F702C0E0E0F0E06E
S1131650E017F1075CF4EC0DFD1D9601200F311F1E
S113166080E38193E217F307E1F701C08F01B8012A
S1131670C601B6DFE601C00FD11F1882C801DF9191
S1131680CF911F910F91FF90EF90DF90CF9008952D
S11316902F923F924F925F926F927F928F929F927E
S11316A0AF92BF92CF92DF92EF92FF920F931F936C
S11316B0CF93DF934B015C018A01E9010E948917F2
S11316C06B017C0141E050E0B801C601A0DF1C01C0
S11316D0209791F1F801E80FF91F8EE28083BE0193
S11316E00D2E000C880B990B0E94BC179B01AC01BA
S11316F060E070E080E291E40E94D3182B013C0189
S1131700B601DD0C880B990B0E94BC179B01AC0140
S1131710C501B4010E94B8162FEF221A320A020D35
S1131720131DA30192010E9470180E948917DC0105
S1131730CB01AE01B8016BDFDF91CF911F910F9107
S1131740FF90EF90DF90CF90BF90AF909F908F90DD
S11317507F906F905F904F903F902F900895CF931C
S1131760DF9300D000D01F92CDB7DEB785E0ECE662
S1131770F3E0DE01119601900D928A95E1F729813B
S11317803A814B815C816D8170E080E090E00F9044
S11317900F900F900F900F90DF91CF9108951092BA
S11317A03903ECE6F3E080E2808380E191E0928308
S11317B08183948383830895CF93DF9321E080E032
S11317C0A1E3B3E0E5E3F3E060E071E001C02F5F83
S11317D09FEF920F913009F44BC038F0923009F426
S11317E08CC0933009F4CEC00EC140913C0350919B
S11317F03D03EA0198819068988340912E035091AB
S11318002F03EA0198819F77988340913A0350917E
S11318103B03EA01388134773C939081432F492775
S113182094233083992399F0943019F4EB0188813F
S11318300AC0903119F4EB01898109C0903219F47E
S1131840EB018A8104C0903411F4EB018B81409147
S11318503C0350913D03EA0198819F77988340911E
S11318602E0350912F03EA01988190689883AFCF9B
S113187040913C0350913D03EA0198819160988323
S113188040912E0350912F03EA0198819E7F988303
S113189040913A0350913B03EA0138813477119621
S11318A03C9311979181432F4927942331839923A2
S11318B099F0943019F4EB018C810AC0903119F439
S11318C0EB018D8109C0903219F4EB018E8104C0C3
S11318D0903411F4EB018F8140913C0350913D030E
S11318E0EA0198819E7F988340912E0350912F03A3
S11318F0EA019881916098836ACF40913C035091AA
S11319003D03EA0198819260988340912E0350919F
S11319102F03EA0198819D7F988340913A03509167
S11319203B03EA013881347712963C9312979281F3
S1131930432F492794233283992399F0943019F43F
S1131940EB0188850AC0903119F4EB01898509C03F
S1131950903219F4EB018A8504C0903411F4EB0140
S11319608B8540913C0350913D03EA0198819D7F12
S1131970988340912E0350912F03EA01988192603D
S1131980988325CFE0913C03F0913D0390819860CA
S11319909083E0912E03F0912F039081977F9083A1
S11319A0E0913A03F0913B032081247720933403A0
S11319B0E5E3F3E09381322F39279323238399239B
S11319C099F0943019F480910C010AC0903119F403
S11319D080910D0109C0903219F480910E0104C068
S11319E0903411F480910F01E0913C03F0913D0398
S11319F09081977F9083E0912E03F0912F03908143
S1131A009860908303C0243008F4E1CEDF91CF9135
S1131A100895CF93DF9300D000D01F92CDB7DEB7E7
S1131A20CBDE8823B1F180936C0390913903943118
S1131A3088F4E0913903F0E0E25CFC4F80839091FC
S1131A4039039F5F90933903E0913903F0E0E25C3E
S1131A50FC4F1082843499F4E0913903F0E0E35CA4
S1131A60FC4F108210923903ECE6F3E080E191E040
S1131A70928381838EE393E0948383830AC0ECE6AC
S1131A80F3E08EE393E09283818380E191E0948399
S1131A90838385E0ECE6F3E0DE01119601900D927C
S1131AA08A95E1F729813A814B815C816D8170E0EF
S1131AB080E090E00F900F900F900F900F90DF91C7
S1131AC0CF910895CF93DF93CDB7DEB728970FB6A4
S1131AD0F894DEBF0FBECDBF2FB730E230936C0356
S1131AE090933D0380933C0370933B0360933A03CC
S1131AF050932F0340932E033BE8FC013083E09185
S1131B002E03F0912F0384E78083A1E3B3E08C9349
S1131B10E5E3F3E0808311968C9311978183129609
S1131B208C931297828313968C9383831092390338
S1131B302FBFE0912E03F0912F0380818B68808367
S1131B402CED3BE03A83298349E05DE05C834B83E1
S1131B506FEA7BE07E836D838FEC9BE098878F83B5
S1131B603A815C817E81988528960FB6F894DEBF11
S1131B700FBECDBFDF91CF910895E0915D03F09149
S1131B805E0390819D7F9083672B41F0E0915D031C
S1131B90F0915E0390819160908307C0E0915D03B2
S1131BA0F0915E0390819E7F9083E0915A03F091BF
S1131BB05B039081906F9083E0915D03F0915E03ED
S1131BC0908194609083882344F4E0915D03F091C4
S1131BD05E0390819068908307C0E0915D03F0916B
S1131BE05E0390819F77908386FF08C0E0915D0338
S1131BF0F0915E0390819064908307C0E0915D034F
S1131C00F0915E0390819F7B908385FF08C0E091F3
S1131C105D03F0915E0390819062908307C0E09130
S1131C205D03F0915E0390819F7D908384FF08C0E3
S1131C30E0915D03F0915E0390819061908307C011
S1131C40E0915D03F0915E0390819F7E9083E0912B
S1131C505D03F0915E0390819B7F9083E0915D032F
S1131C60F0915E0390819460908383FF08C0E091BB
S1131C705D03F0915E0390819068908307C0E091CA
S1131C805D03F0915E0390819F77908382FF08C08B
S1131C90E0915D03F0915E0390819064908307C0AE
S1131CA0E0915D03F0915E0390819F7B908381FFBF
S1131CB008C0E0915D03F0915E039081906290838F
S1131CC007C0E0915D03F0915E0390819F7D908356
S1131CD080FF08C0E0915D03F0915E038081806124
S1131CE0808307C0E0915D03F0915E0380818F7E65
S1131CF08083E0915D03F0915E0380818B7F80831C
S1131D000895E0915A03F0915B0320812F702083A2
S1131D10E0915D03F0915E032081206F2083E091C8
S1131D205D03F0915E03208122602083892B41F0C2
S1131D30E0915D03F0915E0380818160808307C040
S1131D40E0915D03F0915E0380818E7F8083E0915A
S1131D505D03F0915E03808184608083E09153038E
S1131D60F09154038081882314F080E001C080E85E
S1131D70908196FF02C0806401C08F7B908195FFA3
S1131D8002C0806201C08F7D908194FF02C0806197
S1131D9001C08F7EE0915D03F0915E0390819B7F93
S1131DA09083E0915D03F0915E0390819460908351
S1131DB0E0915303F09154039081992314F48860C3
S1131DC001C0877F908196FF02C0846001C08B7F31
S1131DD0908195FF02C0826001C08D7F908194FF45
S1131DE002C0816001C08E7FE0915D03F0915E03CB
S1131DF090819B7F90830895CF93DF9380E090E060
S1131E0080DFCBE0D0E005C080E090E07ADF21976E
S1131E1011F08823CCF3DF91CF91089561E070E055
S1131E20ACDEEACF0895CF9381E090E06ADFC82F5B
S1131E30E3DF8C2FCF910895CF93DF93EC0188815A
S1131E40882341F0219661E070E097DED5DF899127
S1131E508111F9CFDF91CF9108950F931F93CF9301
S1131E60DF93FC01D62F8081882351F08F010F5F0F
S1131E701F4F611109C01BC0CF5FDC1730F401C0D4
S1131E80C0E0CD1760F013C0C1E061E070E075DE22
S1131E90B3DFF80181918F018111EECFF2CFCF5FD3
S1131EA061E070E080E269DEA7DFCD17C0F3DF9167
S1131EB0CF911F910F910895CF93C82F882339F0A4
S1131EC061E070E080E259DE97DFC150C9F7CF913D
S1131ED00895262F8130910571F030F082309105FC
S1131EE089F00397B1F0089560E070E080E8820F14
S1131EF044DE82CF089560E070E080EC820F3DDE26
S1131F007BCF089560E070E084E9820F36DE74CF01
S1131F10089560E070E084ED820F2FDE6DCF0895A8
S1131F2060E070E081E029DE87EE97E10197F1F748
S1131F3000C000000895E0915A03F0915B0387E02C
S1131F408083E0915D03F0915E0388E080832FEF4E
S1131F5083EF91E0215080409040E1F700C0000001
S1131F6060E070E083E309DE20ED2A95F1F760E09C
S1131F7070E083E302DE80ED8A95F1F760E070E0C3
S1131F808BE2FBDD95EC9A95F1F7000060E070E0E0
S1131F908CE0F3DD25EC2A95F1F7000060E070E0B9
S1131FA081E0EBDD87EE97E10197F1F700C00000D7
S1131FB060E070E086E0E1DD95EC9A95F1F70000D1
S1131FC008951F93CF93DF93EC011FB78FB78F77DB
S1131FD08FBF70935B0360935A03509354034093F1
S1131FE0530330935E0320935D03FB011082E09161
S1131FF05D03F0915E038FEF8083E0915303F091D2
S113200054038081887080935C0395DF1FBF8DEB40
S11320109DE09983888381E89EE09B838A838CEF8B
S11320209EE09D838C838EE09FE09F838E8383E17B
S11320309FE0998788878CE19FE09B878A878DE260
S11320409FE09D878C878CE59FE09F878E8780E942
S11320509FE0998B888B89E69FE09B8B8A8B88E332
S113206090E19D8B8C8BCE01DF91CF911F910895D0
S1132070CF93E0915303F0915403C081C8708091D1
S11320805C038C278C2309F056DFC0935C03CF914B
S11320900895FC0140835183628373830895FC0196
S11320A044835583668377830895FC014087518771
S11320B0628773870895FC0140A351A362A373A3AD
S11320C00895FC019FB78FB78F778FBF9FBF80E0C4
S11320D090E0A0E8BFE380839183A283B38314825A
S11320E0158216821782108611861286138614862C
S11320F0158616861786108A118A128A138A148AFC
S1132100158A168A178A108E118E128E138E148ECB
S1132110158E168E178E10A211A212A213A214A24B
S113212015A216A217A210A611A612A613A689E438
S113213090E195A784A78FE490E197A786A785E50A
S113214090E191AB80AB8BE590E193AB82AB86EEF3
S113215090E195AB84ABCF010895CF92DF92EF92DB
S1132160FF920F931F93CF93DF93EC0168017901E2
S11321709A01AB0168A179A18AA19BA1F9D52C850B
S11321803D854E855F85F5D5A7019601A9D720E049
S113219030E040E05FE3A4D760938203709383034D
S11321A08093840390938503288D398D4A8D5B8DAC
S11321B0E0D5688F798F8A8F9B8FDF91CF911F91A4
S11321C00F91FF90EF90DF90CF9008954F925F9220
S11321D06F927F928F929F92AF92BF92CF92DF9233
S11321E0EF92FF920F931F93CF93DF9300D000D011
S11321F000D0CDB7DEB79E838D836A017B01480191
S11322005901DC0194964D935D936D937C9397975C
S11322109A01AB0190966D917D918D919C919397CC
S1132220A7D5ED81FE81608B718B828B938B848A21
S1132230958AA68AB78A208131814281538150D7F9
S11322402B013C0195018401B701A6018D819E817A
S113225084DFED81FE81248135814681578140D719
S1132260A301920186D52B013C01A7019601AD8102
S1132270BE8190966D917D918D919C91939778D527
S1132280ED81FE81248535854685578571D5A50167
S11322909401D7D54B015C01AD81BE815C966D93F1
S11322A07D938D939C935F9718962D913D914D91BD
S11322B05C911B9715D79B01AC01609382037093CB
S11322C083038093840390938503C301B20151D5A2
S11322D06B017C01ED81FE8140885188628873889E
S11322E0448655866686778660A771A782A793A7DA
S11322F020E030EC4FE754E4EFD6181694F5AD81A6
S1132300BE8154968D919D910D90BC91A02D898391
S11323109A83AB83BC839C01AD01C301B201E0D6B7
S11323209B01AC0160E070EC8FE794E421D52B01B4
S11323303C01A501940169817A818B819C81D0D66D
S113234029813A814B815C81CBD69B01AC01C301CD
S1132350B2010ED5ED81FE81608F718F828F938FD4
S113236038C020E030EC4FE754ECC701B60165D526
S113237088237CF5AD81BE8154968D919D910D90FD
S1132380BC91A02D89839A83AB83BC839C01AD014E
S1132390C301B201A5D620E030EC4FE754E4E8D401
S11323A02B013C01A501940169817A818B819C8177
S11323B097D629813A814B815C8192D69B01AC01ED
S11323C0C301B201D6D4ED81FE81608F718F828FFB
S11323D0938FC701B60126960FB6F894DEBF0FBEE1
S11323E0CDBFDF91CF911F910F91FF90EF90DF90C0
S11323F0CF90BF90AF909F908F907F906F905F90A1
S11324004F900895109261008FE08093620087B32B
S1132410806E87BB0895CF93DF93CDB7DEB7C55DDC
S1132420D1090FB6F894DEBF0FBECDBFEBDFCE01EE
S11324308E579F4F28D88CE4FE01EE57FF4FACE82F
S1132440B3E001900D928A95E1F72BE330E049E384
S113245050E06AE370E0CE01C896B3DD26966EAC18
S11324607FAC26972A968EAD9FAD2A97C253DF4F35
S113247099838883CE5CD0402C964EAC5FAC2C976D
S113248043E250E061E270E082E290E01BDB2F96D1
S11324902FAF2F9760963FAF609761964FAF6197CC
S11324A062965FAF629763966FAF639764967FAFF0
S11324B0649765968FAF659766969FAF66976496A7
S11324C08EAC9FAC649766962EAC3FAC66971F9219
S11324D01F921F9281E08F9390E89F938F930E94A5
S11324E0A901C053DF4F688379838A839B83C05DCE
S11324F0D04042E062E0CE018A5A9F4F0E94C90355
S113250040E069E0CE018A599F4F0E940B04E09697
S1132510AEADBFADE097CC52DF4FB983A883C45DA5
S1132520D04001E020E042E065E670E084E690E01F
S11325300E944601209386033093870340938803C7
S11325405093890360938A0370938B03CE018E5753
S11325509F4FB7DD86E3FE01EE57FF4FAEEDB3E0CC
S113256001900D928A95E1F7CE018E579F4FA9DD18
S113257086E3FE01EE57FF4FA4E1B4E001900D9213
S11325808A95E1F7CE018A589F4FFC0120E330E0A1
S11325902193319324E0DF011D922A95E9F729E381
S11325A030E3EE963FAF2EAFEE97C258DF4F19825D
S11325B01882CE57D040C058DF4F19821882C058B5
S11325C0D04090937E0180937D016E96EEADFFAD79
S11325D06E9789EF0995A496EEADFFADA49780E4BC
S11325E090E00995AA96EEADFFADAA9782E0099511
S11325F0AE96EEADFFADAE9780E29EE40995E4960B
S1132600EEADFFADE49788E090E009950EED13E0A0
S1132610D8019C96ED91FC919D9740E050E060E8D4
S11326207FE3C8010995D801D096ED91FC91D1972B
S11326304DEC5CEC6CE47EE3C8010995D8019E96F0
S1132640ED91FC919F9740E050E060E07FE3C8018A
S11326500995D801D296ED91FC91D39740E050E8CA
S113266062E274E4C801099504E114E0D8019C967F
S1132670ED91FC919D9740E050E060E07FE3C8015C
S11326800995D801D096ED91FC91D19740E050E0A6
S113269060E87FE3C8010995D8019E96ED91FC910D
S11326A09F974AE057ED63E27CE3C8010995D8019E
S11326B0D296ED91FC91D39740E050E06AEF72E43A
S11326C0C80109952E96EEADFFAD2E970995629639
S11326D02EAD3FAD6297F90109956DE070E083E09E
S11326E090E0F2010995EEADFFAD8AE30995F4019E
S11326F009953CAB4DAB66E08CA99DA9F301099506
S11327000F900F900F900F900F900F90F401099578
S113271059AB6AAB62E171E089A99AA93FD7892BC9
S113272051F4F1010995C253DF4FE881F981CE5C80
S1132730D04009955BC2F40109955CA76DA764E1DB
S113274071E08CA59DA52AD7892B51F4F101099537
S1132750C253DF4FE881F981CE5CD0400995FEC1B8
S113276080E090E0CE52DF4FE881F981C25DD04035
S113277009959093DD038093DC0360E070E080E0D2
S113278090E0F201099567E086E191E0F301099593
S1132790E091AC03F091AD038091DC039091DD03F3
S11327A00995BC01CE018A589F4F01D764E0CE0140
S11327B08A589F4FF3010995C0904A04D0904B0466
S11327C0E0904C04F0904D0420E030E040E854ECFC
S11327D0C701B60181D418160CF058C020E030E0CF
S11327E040E854E4C701B60128D388230CF04EC056
S11327F0C701B6018ED31F921F92F9E0FF932EE218
S11328002F93E091CA03F091CB030F2EF4EFAF2E78
S1132810BB24B394C12CD12CF02DEE24EA9413E004
S1132820F12E00E010E021E03CEF4FEF5FEF09955F
S1132830609382037093830380938403909385034E
S1132840CB01CC52DF4FE881F981C45DD0400995BA
S113285060E070E081E090E0F2010995E091AC0362
S1132860F091AD0380918203909183030995BC019B
S1132870CE018A589F4F9BD664E0CE018A589F4F61
S1132880F30109950F900F900F900F90E091D603EC
S1132890F091D70326E030E0AE014A585F4F6EEC6A
S11328A075E08CE092E4099560E070E082E090E0ED
S11328B0F20109956CE0CE018A589F4FF301099506
S11328C060E070E083E090E0F20109956091FA0322
S11328D07091FB038091FC039091FD031AD3E09166
S11328E0B003F091B1030995BC01CE018A589F4F02
S11328F05ED666E0CE018A589F4FF30109956DE0DC
S113290070E080E090E0F201099560914A047091D2
S11329104B0480914C0490914D04FBD2E091B003A0
S1132920F091B1030995BC01CE018A589F4F3FD65F
S113293066E0CE018A589F4FF30109956DE070E07F
S113294081E090E0F20109956091D8037091D90378
S11329508091DA039091DB03DCD2E091B003F09133
S1132960B1030995BC01CE018A589F4F20D666E079
S1132970CE018A589F4FF30109951AC1F1010995B7
S1132980C253DF4FE881F981CE5CD0400995E6C09F
S1132990F40109955AA36BA364E171E08AA19BA198
S11329A0FDD5892B51F4F1010995C253DF4FE8811C
S11329B0F981CE5CD0400995FBC0F40109955D8F87
S11329C06E8F6FE171E08D8D9E8DE8D5892B51F46A
S11329D0F1010995C253DF4FE881F981CE5CD04003
S11329E00995E6C060E070E080E090E0F2010995AE
S11329F068E081E291E0F301099563E0CE01845837
S1132A009F4FF301099560E070E081E090E0F201EE
S1132A1009956BE08AE291E0F3010995F4010995C7
S1132A20243409F050C0F40109955B8B6C8B6B89DD
S1132A307C8946E050E0CE0184589F4FBFD5E09199
S1132A40B803F091B903CE0184589F4F0995853B93
S1132A50910590F5BC01990F880B990B1F921F9259
S1132A60F9E0FF932EE22F93E091CA03F091CB0398
S1132A700F2EF4EFAF2EBB24B394C12CD12CF02D28
S1132A8014EBE12EF12C00E010E020E030E0A9018D
S1132A900995CB01CC52DF4FE881F981C45DD04068
S1132AA009952896EEADFFAD289785E009950F901E
S1132AB00F900F900F9005C065E086E391E0F3015D
S1132AC00995F101099560E070E083E090E0F2017E
S1132AD0099568E08CE391E0F301099587C0F10161
S1132AE00995C253DF4FE881F981CE5CD040099546
S1132AF05FC0F401099559876A8764E171E08985AB
S1132B009A854CD5892B51F4F1010995C253DF4FB5
S1132B10E881F981CE5CD040099568C0F40109953B
S1132B205C836D836FE171E08C819D8137D5892B46
S1132B3051F4F1010995C253DF4FE881F981CE5C6C
S1132B40D040099535C060E070E080E090E0F2018B
S1132B50099563E185E491E0F30109952E96EEADC4
S1132B60FFAD2E9709956296EEADFFAD629709957C
S1132B706DE070E083E090E0F2010995EEADFFAD09
S1132B808AE30995F40109953CAB4DAB66E08CA949
S1132B909DA9F3010995F40109955E876F8762E1A8
S1132BA071E08E859F85FAD4892B09F498CFA1CF43
S1132BB02E96EEADFFAD2E9709956296EEADFFAD64
S1132BC0629709956DE070E083E090E0F201099569
S1132BD0EEADFFAD8AE30995F40109953CAB4DAB2D
S1132BE066E08CA99DA9F301099590CD2E96EEADD2
S1132BF0FFAD2E9709956296EEADFFAD62970995EC
S1132C006DE070E083E090E0F2010995EEADFFAD78
S1132C108AE30995F40109953CAB4DAB66E08CA9B8
S1132C209DA9F3010995F40109955FA368A762E1E1
S1132C3071E08FA198A5B2D4892B09F49FCEA8CEB8
S1132C401F920F920FB60F9211240BB60F920F938F
S1132C501F932F933F934F935F936F937F938F9320
S1132C609F93AF93BF93CF93EF93FF93CFB78FB758
S1132C708F778FBF809180018C3308F45FC060919F
S1132C80DC037091DD0380E090E074D1AB01BC0102
S1132C90E0911204F091130400E010E020E03FE31F
S1132CA08EED93E0099560934A0470934B048093EE
S1132CB04C0490934D046091DC037091DD0380E03B
S1132CC090E058D1AB01BC01E0914804F091490473
S1132CD000E010E020E03FE384E194E00995609394
S1132CE0D8037093D9038093DA039093DB03809124
S1132CF07F018F5F80937F018F7090E0089774F459
S1132D0006E813E0D801ED91FC9180E00995D80123
S1132D101496ED91FC91159709950DC006E813E002
S1132D20D801ED91FC9181E00995D8011496ED91BB
S1132D30FC91159709951092800103C08F5F8093D1
S1132D408001CFBFFF91EF91CF91BF91AF919F9140
S1132D508F917F916F915F914F913F912F911F912F
S1132D600F910F900BBE0F900FBE0F901F901895F0
S1132D705058BB27AA270ED075C166D130F06BD14D
S1132D8020F031F49F3F11F41EF45BC10EF4E09582
S1132D90E7FB51C1E92F77D180F3BA1762077307B4
S1132DA08407950718F071F49EF58FC10EF4E09531
S1132DB00B2EBA2FA02D0B01B90190010C01CA01F1
S1132DC0A0011124FF27591B99F0593F50F4503E9C
S1132DD068F11A16F040A22F232F342F4427585F8E
S1132DE0F3CF469537952795A795F0405395C9F7A6
S1132DF07EF41F16BA0B620B730B840BBAF091505E
S1132E00A1F0FF0FBB1F661F771F881FC2F70EC0FC
S1132E10BA0F621F731F841F48F4879577956795CF
S1132E20B795F7959E3F08F0B3CF9395880F08F0B8
S1132E309927EE0F979587950895D9D008F481E0E6
S1132E4008950CD00FC107D140F0FED030F021F42A
S1132E505F3F19F0F0C0511139C1F3C014D198F398
S1132E609923C9F35523B1F3951B550BBB27AA2707
S1132E7062177307840738F09F5F5F4F220F331F79
S1132E80441FAA1FA9F333D00E2E3AF0E0E830D045
S1132E9091505040E695001CCAF729D0FE2F27D048
S1132EA0660F771F881FBB1F261737074807AB0716
S1132EB0B0E809F0BB0B802DBF01FF2793585F4F8B
S1132EC02AF09E3F510568F0B6C000C15F3FECF3A5
S1132ED0983EDCF3869577956795B795F7959F5F50
S1132EE0C9F7880F911D9695879597F90895E1E0A4
S1132EF0660F771F881FBB1F621773078407BA0703
S1132F0020F0621B730B840BBA0BEE1F88F7E0955D
S1132F10089504D06894B111D9C00895BCD088F044
S1132F209F5790F0B92F9927B751A0F0D1F0660FB1
S1132F30771F881F991F1AF0BA95C9F712C0B130CC
S1132F4081F0C3D0B1E00895C0C0672F782F8827DF
S1132F50B85F39F0B93FCCF3869577956795B3950B
S1132F60D9F73EF490958095709561957F4F8F4F7A
S1132F709F4F0895E89409C097FB3EF4909580957F
S1132F80709561957F4F8F4F9F4F9923A9F0F92F2B
S1132F9096E9BB279395F695879577956795B795A9
S1132FA0F111F8CFFAF4BB0F11F460FF1BC06F5F8F
S1132FB07F4F8F4F9F4F16C0882311F096E911C0A1
S1132FC0772321F09EE8872F762F05C0662371F0C2
S1132FD096E8862F70E060E02AF09A95660F771FD6
S1132FE0881FDAF7880F9695879597F90895990FB2
S1132FF00008550FAA0BE0E8FEEF16161706E807BF
S1133000F907C0F012161306E407F50798F0621BDF
S1133010730B840B950B39F40A2661F0232B242BB4
S1133020252B21F408950A2609F4A140A6958FEFD3
S1133030811D811D089597F99F6780E870E060E025
S113304008959FEF80EC089500240A94161617063D
S113305018060906089500240A9412161306140685
S113306005060895092E0394000C11F4882352F0E8
S1133070BB0F40F4BF2B11F460FF04C06F5F7F4FA0
S11330808F4F9F4F089557FD9058440F551F59F087
S11330905F3F71F04795880F97FB991F61F09F3F41
S11330A079F087950895121613061406551FF2CF6A
S11330B04695F1DF08C0161617061806991FF1CFBA
S11330C086957105610508940895E894BB276627E1
S11330D07727CB0197F908958ADF08F48FEF0895D5
S11330E00BD0C0CFB1DF28F0B6DF18F0952309F07C
S11330F0A2CFA7CF1124EACFC6DFA0F3959FD1F3C7
S1133100950F50E0551F629FF001729FBB27F00D91
S1133110B11D639FAA27F00DB11DAA1F649F6627E6
S1133120B00DA11D661F829F2227B00DA11D621F35
S1133130739FB00DA11D621F839FA00D611D221FEF
S1133140749F3327A00D611D231F849F600D211DD3
S1133150822F762F6A2F11249F5750408AF0E1F076
S113316088234AF0EE0FFF1FBB1F661F771F881FBF
S113317091505040A9F79E3F510570F05CCFA6CF07
S11331805F3FECF3983EDCF3869577956795B795AA
S1133190F795E7959F5FC1F7FE2B880F911D9695D4
S11331A0879597F90895FA01EE0FFF1F30962105D0
S11331B0310599F16115710561F48038BFE39B070E
S11331C049F168949038810561F08038BFEF9B071E
S11331D041F0992342F5FF3FE1053105210511F145
S11331E0E8940894E795D901AA2329F4AB2FBE2FBC
S11331F0F85FD0F310C0FF5F70F4A695E0F7F739DD
S113320050F019F0FF3A38F49F779F930CD00F9049
S113321007FC905808953EF014CF60E070E080E819
S11332209FE308954FE79F775F934F933F932F93C7
S11332309ED02F913F914F915F9152DF05C019F4B9
S11332400EF0F9CE42CFFDCE26DFC8F39638C0F794
S113325007F80F92E8942BE33AEA48EB5FE74EDF76
S11332600F920F920F924DB75EB70F92C0D0E2EC5F
S1133270F0E016D04F915F91EF91FF91E595EE1F2D
S1133280FF1F49F0FE57E0684427EE0F441FFA95EC
S1133290E1F74195550B32D00F9007FE26C00895F3
S11332A0DF93CF931F930F93FF92EF92DF927B01F3
S11332B08C01689405C0DA2EEF011EDFFE01E8944C
S11332C0A5912591359145915591AEF3EF0162DDBC
S11332D0FE019701A801DA9479F7DF90EF90FF904F
S11332E00F911F91CF91DF9108959B01AC0160E094
S11332F070E080E89FE3A5CD9ECEACC0CCDEE8F3C1
S11333009923D9F3940F511DBBF39150504094F07D
S113331059F0882332F0660F771F881F9150504070
S1133320C1F79E3F510544F7880F911D96958795E7
S113333097F908955F3FACF0983E9CF0BB278695C3
S113334077956795B79508F4B1609395C1F7BB0F6E
S113335058F711F460FFE8CF6F5F7F4F8F4F9F4F97
S1133360E3CFB4CE0EF076C06CCE689464CE93DE18
S1133370C8F39923D1F3C6F3DF93CF931F930F932D
S1133380FF92C92FDD2788232AF02197660F771F24
S1133390881FDAF720E030E040E85FEB9FE38839EC
S11333A020F0803E30F021968F77E3DCEAEEF0E007
S11333B003C0DFDCE7E1F1E073DF8B01BE01EC0168
S11333C0FB2E6F5771097595771F880B990BD4DD08
S11333D028E132E741E35FE38FDEAF2D9801AE01D0
S11333E0FF900F911F91CF91DF91D4DC3BCEFA0176
S11333F0DC01AA0FBB1F9B01AC01BF5728F4222795
S11334003327442750781FC0B75188F4AB2F0024CA
S1133410469537952795011CA395D2F3002069F0B2
S1133420220F331F441FB395DAF30DD0A1CC6130C2
S11334307105A0E88A07B94630F49B01AC01662700
S1133440772788279078309621F020833183428330
S1133450538308959F3F31F0915020F487957795D9
S11334606795B795880F911D9695879597F9089557
S1133470DB018F939F9388D0BF91AF91A29F800D62
S1133480911DA39F900DB29F900D11240895AA1B26
S1133490BB1B51E107C0AA1FBB1FA617B70710F03B
S11334A0A61BB70B881F991F5A95A9F7809590956D
S11334B0BC01CD01089597FB072E16F4009406D0A5
S11334C077FD08D0E4DF07FC05D03EF490958195A4
S11334D09F4F0895709561957F4F0895A1E21A2E2C
S11334E0AA1BBB1BFD010DC0AA1FBB1FEE1FFF1FA4
S11334F0A217B307E407F50720F0A21BB30BE40BF4
S1133500F50B661F771F881F991F1A9469F760953A
S11335107095809590959B01AC01BD01CF010895F4
S1133520052E97FB16F400940FD057FD05D0D6DF77
S113353007FC02D046F408C050954095309521957B
S11335403F4F4F4F5F4F08959095809570956195CB
S11335507F4F8F4F9F4F0895EE0FFF1F0024001CD5
S11335600BBE0790F691E02D0994A29FB001B39F82
S1133570C001A39F700D811D1124911DB29F700D78
S1133580811D1124911D0895F0DFA59F900DB49F16
S1133590900DA49F800D911D11240895FB01DC0161
S11335A08D91019080190110D9F3990B0895FB01B5
S11335B0DC0101900D920020E1F70895FB01DC018C
S11335C04150504048F001900D920020C9F701C0CD
S11135D01D9241505040E0F70895F894FFCF4B
S11335DE3132334134353642373839432A30234475
S11335EE0000410042004F75747075743A20004318
S11335FE004D616E75616C3A2000456E74657220E3
S113360E416E676C650020206572720043202D2088
S113361E65786974004E6F74206265696E672075F3
S107362E7365640058
S9030000FC
